{"abi":[{"type":"constructor","inputs":[{"name":"_slugFee","type":"uint256","internalType":"uint256"},{"name":"poolManager_","type":"address","internalType":"address"},{"name":"positionManager_","type":"address","internalType":"address"}],"stateMutability":"nonpayable"},{"type":"receive","stateMutability":"payable"},{"type":"function","name":"buy","inputs":[{"name":"token","type":"address","internalType":"address"},{"name":"nonce","type":"uint256","internalType":"uint256"}],"outputs":[],"stateMutability":"payable"},{"type":"function","name":"calculateFee","inputs":[{"name":"ETH","type":"uint256","internalType":"uint256"}],"outputs":[{"name":"","type":"uint256","internalType":"uint256"}],"stateMutability":"view"},{"type":"function","name":"createToken","inputs":[{"name":"name","type":"string","internalType":"string"},{"name":"symbol","type":"string","internalType":"string"},{"name":"metadata_uri","type":"string","internalType":"string"},{"name":"id","type":"string","internalType":"string"},{"name":"nonce","type":"uint256","internalType":"uint256"},{"name":"signature","type":"bytes","internalType":"bytes"}],"outputs":[],"stateMutability":"nonpayable"},{"type":"function","name":"getCollectedFee","inputs":[],"outputs":[{"name":"","type":"uint256","internalType":"uint256"}],"stateMutability":"view"},{"type":"function","name":"getETHQuote","inputs":[{"name":"token","type":"address","internalType":"address"}],"outputs":[{"name":"","type":"uint256","internalType":"uint256"}],"stateMutability":"view"},{"type":"function","name":"getInitialTokenSupply","inputs":[],"outputs":[{"name":"","type":"uint256","internalType":"uint256"}],"stateMutability":"pure"},{"type":"function","name":"getInitialVEthSupply","inputs":[],"outputs":[{"name":"","type":"uint256","internalType":"uint256"}],"stateMutability":"pure"},{"type":"function","name":"getK","inputs":[],"outputs":[{"name":"","type":"uint256","internalType":"uint256"}],"stateMutability":"pure"},{"type":"function","name":"getLockedTokens","inputs":[{"name":"token","type":"address","internalType":"address"}],"outputs":[{"name":"","type":"uint256","internalType":"uint256"}],"stateMutability":"view"},{"type":"function","name":"getNonce","inputs":[],"outputs":[{"name":"","type":"uint256","internalType":"uint256"}],"stateMutability":"view"},{"type":"function","name":"getPoolFee","inputs":[],"outputs":[{"name":"","type":"uint24","internalType":"uint24"}],"stateMutability":"pure"},{"type":"function","name":"getPoolManager","inputs":[],"outputs":[{"name":"","type":"address","internalType":"address"}],"stateMutability":"view"},{"type":"function","name":"getPoolSupply","inputs":[{"name":"token","type":"address","internalType":"address"}],"outputs":[{"name":"","type":"tuple","internalType":"struct supply","components":[{"name":"_tokenSupply","type":"uint256","internalType":"uint256"},{"name":"_VETH","type":"uint256","internalType":"uint256"}]}],"stateMutability":"view"},{"type":"function","name":"getPositionManager","inputs":[],"outputs":[{"name":"","type":"address","internalType":"address"}],"stateMutability":"view"},{"type":"function","name":"getSlugFee","inputs":[],"outputs":[{"name":"","type":"uint256","internalType":"uint256"}],"stateMutability":"view"},{"type":"function","name":"getStoredETH","inputs":[{"name":"token","type":"address","internalType":"address"}],"outputs":[{"name":"","type":"uint256","internalType":"uint256"}],"stateMutability":"view"},{"type":"function","name":"getTickSpacing","inputs":[],"outputs":[{"name":"","type":"int24","internalType":"int24"}],"stateMutability":"pure"},{"type":"function","name":"getTokenQuote","inputs":[{"name":"token","type":"address","internalType":"address"}],"outputs":[{"name":"","type":"uint256","internalType":"uint256"}],"stateMutability":"view"},{"type":"function","name":"getTokenReserves","inputs":[{"name":"token","type":"address","internalType":"address"}],"outputs":[{"name":"","type":"uint256","internalType":"uint256"}],"stateMutability":"view"},{"type":"function","name":"getVEthReserves","inputs":[{"name":"token","type":"address","internalType":"address"}],"outputs":[{"name":"","type":"uint256","internalType":"uint256"}],"stateMutability":"view"},{"type":"function","name":"isGraduated","inputs":[{"name":"token","type":"address","internalType":"address"}],"outputs":[{"name":"","type":"bool","internalType":"bool"}],"stateMutability":"view"},{"type":"function","name":"onERC721Received","inputs":[{"name":"","type":"address","internalType":"address"},{"name":"","type":"address","internalType":"address"},{"name":"","type":"uint256","internalType":"uint256"},{"name":"","type":"bytes","internalType":"bytes"}],"outputs":[{"name":"","type":"bytes4","internalType":"bytes4"}],"stateMutability":"pure"},{"type":"function","name":"owner","inputs":[],"outputs":[{"name":"","type":"address","internalType":"address"}],"stateMutability":"view"},{"type":"function","name":"renounceOwnership","inputs":[],"outputs":[],"stateMutability":"nonpayable"},{"type":"function","name":"sell","inputs":[{"name":"token","type":"address","internalType":"address"},{"name":"amount","type":"uint256","internalType":"uint256"},{"name":"nonce","type":"uint256","internalType":"uint256"}],"outputs":[],"stateMutability":"nonpayable"},{"type":"function","name":"setSlugFee","inputs":[{"name":"fee","type":"uint256","internalType":"uint256"}],"outputs":[],"stateMutability":"nonpayable"},{"type":"function","name":"transferOwnership","inputs":[{"name":"newOwner","type":"address","internalType":"address"}],"outputs":[],"stateMutability":"nonpayable"},{"type":"function","name":"withdrawFee","inputs":[{"name":"amount","type":"uint256","internalType":"uint256"}],"outputs":[],"stateMutability":"nonpayable"},{"type":"event","name":"OwnershipTransferred","inputs":[{"name":"previousOwner","type":"address","indexed":true,"internalType":"address"},{"name":"newOwner","type":"address","indexed":true,"internalType":"address"}],"anonymous":false},{"type":"event","name":"TokenBought","inputs":[{"name":"token","type":"address","indexed":true,"internalType":"address"},{"name":"VETH","type":"uint256","indexed":false,"internalType":"uint256"},{"name":"amount","type":"uint256","indexed":false,"internalType":"uint256"},{"name":"sender","type":"address","indexed":false,"internalType":"address"},{"name":"poolTokens","type":"uint256","indexed":false,"internalType":"uint256"},{"name":"poolVETHs","type":"uint256","indexed":false,"internalType":"uint256"}],"anonymous":false},{"type":"event","name":"TokenCreated","inputs":[{"name":"token","type":"address","indexed":true,"internalType":"address"},{"name":"id","type":"string","indexed":false,"internalType":"string"},{"name":"poolTokens","type":"uint256","indexed":false,"internalType":"uint256"},{"name":"poolVETHs","type":"uint256","indexed":false,"internalType":"uint256"}],"anonymous":false},{"type":"event","name":"TokenSold","inputs":[{"name":"token","type":"address","indexed":true,"internalType":"address"},{"name":"VETH","type":"uint256","indexed":false,"internalType":"uint256"},{"name":"amount","type":"uint256","indexed":false,"internalType":"uint256"},{"name":"sender","type":"address","indexed":false,"internalType":"address"},{"name":"poolTokens","type":"uint256","indexed":false,"internalType":"uint256"},{"name":"poolVETHs","type":"uint256","indexed":false,"internalType":"uint256"}],"anonymous":false},{"type":"event","name":"poolcreated","inputs":[{"name":"tokenA","type":"address","indexed":true,"internalType":"address"},{"name":"poolTokens","type":"uint256","indexed":false,"internalType":"uint256"},{"name":"poolVETHs","type":"uint256","indexed":false,"internalType":"uint256"}],"anonymous":false},{"type":"event","name":"tokenDeployed","inputs":[{"name":"token","type":"address","indexed":true,"internalType":"address"}],"anonymous":false},{"type":"event","name":"tokenGraduated","inputs":[{"name":"token","type":"address","indexed":true,"internalType":"address"}],"anonymous":false},{"type":"error","name":"AddressEmptyCode","inputs":[{"name":"target","type":"address","internalType":"address"}]},{"type":"error","name":"AddressInsufficientBalance","inputs":[{"name":"account","type":"address","internalType":"address"}]},{"type":"error","name":"FailedInnerCall","inputs":[]},{"type":"error","name":"OwnableInvalidOwner","inputs":[{"name":"owner","type":"address","internalType":"address"}]},{"type":"error","name":"OwnableUnauthorizedAccount","inputs":[{"name":"account","type":"address","internalType":"address"}]},{"type":"error","name":"ReentrancyGuardReentrantCall","inputs":[]},{"type":"error","name":"SafeERC20FailedOperation","inputs":[{"name":"token","type":"address","internalType":"address"}]},{"type":"error","name":"TooSmallTransaction","inputs":[{"name":"token","type":"address","internalType":"address"},{"name":"value","type":"uint256","internalType":"uint256"}]},{"type":"error","name":"TransactionFailure","inputs":[{"name":"token","type":"address","internalType":"address"},{"name":"buy","type":"bool","internalType":"bool"},{"name":"VETH","type":"uint256","internalType":"uint256"},{"name":"tokens","type":"uint256","internalType":"uint256"}]},{"type":"error","name":"VETH_Underflow","inputs":[{"name":"token","type":"address","internalType":"address"}]}],"bytecode":{"object":"0x60803461010257601f61339838819003918201601f19168301916001600160401b03831184841017610106578084926060946040528339810103126101025780519061005960406100526020840161011a565b920161011a565b9033156100ef575f8054336001600160a01b0319821681178355604051959290916001600160a01b0316907f8be0079c531659141344cd1fd0a4f28419497f9722a3daafe3b4186f6b6457e09080a35f6005556001600655600755600880546001600160a01b039283166001600160a01b03199182161790915560098054939092169216919091179055613269908161012f8239f35b631e4fbdf760e01b5f525f60045260245ffd5b5f80fd5b634e487b7160e01b5f52604160045260245ffd5b51906001600160a01b03821682036101025756fe608080604052600436101561001c575b50361561001a575f80fd5b005b5f905f3560e01c90816306b1557b146118f1575080630f854296146115e0578063150b7a021461156a578063271ec305146115445780632f8d3a66146114a457806346daa5d3146114385780634e0370c8146113cd578063514ec52314611394578063601ea5fc146112d757806360481737146112b95780636741fad21461129c57806368a4c8b71461125d5780636a22dede146112345780636a27246214610f725780636b2d95d414610f39578063715018a614610edf57806378d84da314610eb65780637db3fd6914610e9a5780638da5cb5b14610e73578063920988c614610dba5780639877ab9714610d9757806399a5d74714610d70578063b7a1deab14610d4d578063be35761614610c77578063cce7ec1314610232578063d087d2881461020b578063ee39e7a0146101e05763f2fde38b0361000f57346101dd5760203660031901126101dd576101716119be565b610179611b86565b6001600160a01b031680156101c95781546001600160a01b03198116821783556001600160a01b03167f8be0079c531659141344cd1fd0a4f28419497f9722a3daafe3b4186f6b6457e08380a380f35b631e4fbdf760e01b82526004829052602482fd5b80fd5b50346101dd57806003193601126101dd575060206d9dc5ada82b70b59df02000000000604051908152f35b50346101dd57806003193601126101dd576040602091338152600a83522054604051908152f35b5060403660031901126101dd576102476119be565b6001600160a01b0381168083526001602052604083205490919015801590610c5f575b61027390611a7c565b338352600a60205261028d602435604085205414156119ea565b338352600a602052604083206102a38154611a36565b905581835260046020526102be60ff60408520541615611ac0565b6102c6611bac565b6127103410610c47576102d834611b6a565b906102e38234611b21565b9083855260016020526020610326604087209360405161030281611910565b6001865496878352015493849101526d9dc5ada82b70b59df0200000000092611b2e565b908115610c3357602093869261033d920490611b21565b81875260018452604087209460405161035581611910565b600187549788835201549586910152878683115f14610b4557505050508261037c91611bcc565b8480808061038985611b6a565b9561039687600554611b2e565b6005556103cf866103b06103aa8a83611b2e565b34611b21565b928b85526002602052604085206103c8838254611b2e565b9055611b2e565b6001604051916103de83611910565b848352602083019081528b855281602052604085209251835551910155335af1610406611b3b565b5015610b1a57916104447fc6b41d148873e80ac55bc6a92e235d8c13b603e50ad751115d439b51034cb1c892859461043f843388611c26565b611b2e565b83865260016020818152604080892054878a52838352818a209093015481519485529184019490945233938301939093526060820152608081019190915260a090a25b80825260016020526040822060405161049f81611910565b602060018354938484520154910152156104bd575b50600160065580f35b80825260026020526040822054818352600360205260408320548015610ac2578115610a7e576040519060a0820182811067ffffffffffffffff821117610a6a576040528482528360208301526105dc6040830152601e606083015284608083015261053461052f848360c01b611b17565b6120b2565b6001600160a01b038111610a255760085460405163313b65df60e11b81526001600160a01b0392831695929091602091839160c49183918c911661057b600484018b611c69565b8a60a48401525af18015610a1a576109e0575b5061059b61738619611cac565b926105a7617387611cac565b94826105b286611d85565b91856105bd89611d85565b9182856001600160a01b03808316908216116109d4575b50506001600160a01b03851681116109735750506105f192612231565b935b60095460405163095ea7b360e01b81526001600160a01b039091166004820152602481018590526020816044818c8c5af180156109685761093b575b50604051600160f91b6020820152600d60f81b6021820152600560fa1b60228201526003815293889061066360238761192c565b6040519661067260808961192c565b600388526060835b818110610925575050826001600160801b036107aa98999695938161070494610712975060209d8e97604051966106b18a8961192c565b87526106c46040519b8c9a8b0190611c69565b60020b60c089015260020b60e0880152166101008601528189166101208601521661014084015230610160840152610180808401526101a0830190611a58565b03601f19810183528261192c565b61071b82611cd9565b5261072581611cd9565b5060405187868201528660408201526040815261074360608261192c565b61074c82611cfa565b5261075681611cfa565b5060405187868201523060408201526040815261077460608261192c565b61077d82611d0a565b5261078781611d0a565b5060018060a01b0360095416936040519384916040888401526060830190611a58565b91601f1982840301604083015280518084528784019388808360051b8301019301948b915b8a8484106108f65750505050506107ef925003601f19810184528361192c565b61012c4201928342116108e2579081879493923b156108de5784926108329260405180968195829463dd46508f60e01b8452604060048501526044840190611a58565b90602483015203925af180156108d3576108ba575b5090826004925260038152836040812055827fe75b506e79caf6c2d40b9c3d5c97aa086caf52bcc26450f372ce3457a4a7fbfb8580a28284525260408220805460ff191660011790557f7cbf17c3ec08f3fb55efc20f60b3a565b4e8539b5e8940b90d37a0cdca352b408280a25f6104b4565b816108c49161192c565b6108cf57825f610847565b8280fd5b6040513d84823e3d90fd5b8480fd5b634e487b7160e01b87526011600452602487fd5b60019294965061091381929496601f198682030187528951611a58565b970193019301909287949295936107cf565b60606020828c018101919091528d95500161067a565b61095c9060203d602011610961575b610954818361192c565b810190611cc1565b61062f565b503d61094a565b6040513d8b823e3d90fd5b909290916001600160a01b0381168310156109c85782916109989161099e9594612231565b936121f7565b6001600160801b0381166001600160801b038316105f146109c157505b936105f3565b90506109bb565b9150506109bb926121f7565b90955092505f806105d4565b6020813d602011610a12575b816109f96020938361192c565b81010312610a0e57518060020b81031561058e575b8680fd5b3d91506109ec565b6040513d89823e3d90fd5b60405162461bcd60e51b815260206004820152601860248201527f50726963654d6174683a2073717274206f766572666c6f7700000000000000006044820152606490fd5b634e487b7160e01b86526041600452602486fd5b606460405162461bcd60e51b815260206004820152602060248201527f534c554746454153543a204e6f2045544820666f722067726164756174696f6e6044820152fd5b60405162461bcd60e51b815260206004820152602a60248201527f534c554746454153543a204e6f206c6f636b656420746f6b656e7320666f722060448201526933b930b23ab0ba34b7b760b11b6064820152608490fd5b6084848660405191639d743e2f60e01b83526004830152600160248301523460448301526064820152fd5b909193507fc6b41d148873e80ac55bc6a92e235d8c13b603e50ad751115d439b51034cb1c8946001610bb885610bb288610bec989b6040610b868a34611b21565b988995610b958c600554611b2e565b6005558152600260205220610bab858254611b2e565b9055611b21565b93611b2e565b60405192610bc584611910565b835260208301908152888b528160205260408b20925183555191015561043f843388611c26565b83865260016020818152604080892054878a52838352818a209093015481519485529184019490945233938301939093526060820152608081019190915260a090a2610487565b634e487b7160e01b5f52601260045260245ffd5b630a305e2560e01b8352600482905234602452604483fd5b5081835260016020819052604084200154151561026a565b50346101dd5760203660031901126101dd57600435610c94611b86565b8060055410610d0857815482918291829182916001600160a01b03165af1610cba611b3b565b5015610cc35780f35b60405162461bcd60e51b815260206004820152601e60248201527f534c554746454153543a205452414e53414354494f4e204641494c55524500006044820152606490fd5b60405162461bcd60e51b815260206004820152601f60248201527f534c554746454153543a20496e73756666696369656e742062616c616e6365006044820152606490fd5b50346101dd5760203660031901126101dd57610d67611b86565b60043560075580f35b50346101dd5760203660031901126101dd576020610d8f600435611b6a565b604051908152f35b50346101dd57806003193601126101dd576020604051673782dace9d9000008152f35b50346101dd5760203660031901126101dd576020906001600160a01b03610ddf6119be565b1680825260018352604082205415801590610e5d575b610dfe90611a7c565b80825260048352610e1660ff60408420541615611ac0565b81526001825260408120600160405191610e2f83611910565b8054835201549283910152506d9dc5ada82b70b59df02000000000908015610c335760209104604051908152f35b5080825260018084526040832001541515610df5565b50346101dd57806003193601126101dd57546040516001600160a01b039091168152602090f35b50346101dd57806003193601126101dd576020604051601e8152f35b50346101dd57806003193601126101dd576008546040516001600160a01b039091168152602090f35b50346101dd57806003193601126101dd57610ef8611b86565b80546001600160a01b03198116825581906001600160a01b03167f8be0079c531659141344cd1fd0a4f28419497f9722a3daafe3b4186f6b6457e08280a380f35b50346101dd5760203660031901126101dd576020906040906001600160a01b03610f616119be565b168152600383522054604051908152f35b50346101dd5760603660031901126101dd57610f8c6119be565b6001600160a01b038116808352600160205260408320549091602435911580159061121c575b610fbb90611a7c565b8284526004602052610fd460ff60408620541615611ac0565b338452600a602052610fee604435604086205414156119ea565b338452600a602052604084206110048154611a36565b905561100e611bac565b604051636eb1769f60e11b8152336004820152306024820152602081604481875afa801561121157839186916111da575b509161105082611055941015611a7c565b611bcc565b908380808061113661106687611b6a565b88835260026020526040832061107d898254611b21565b905561108b81600554611b2e565b60055588835260016020526040832060016110cd8a6110c68b604051956110b187611910565b602086825492838a5201549701968752611b2e565b9351611b21565b604051926110da84611910565b8352602083019081528b8652816020526040862092518355519101556111306040516323b872dd60e01b60208201523360248201523060448201528860648201526064815261112a60848261192c565b8a611d1a565b87611b21565b335af1611141611b3b565b50156111b05782845260016020818152604080872054868852838352818820909301548151958652918501939093523392840192909252606083015260808201527fccbb01e5d48f9e94c036e40e75c619be617c77410704a905f8213774c07345d39060a090a2600160065580f35b905060849260405192639d743e2f60e01b8452600484015280602484015260448301526064820152fd5b9150506020813d602011611209575b816111f66020938361192c565b810103126108de5751829061105061103f565b3d91506111e9565b6040513d87823e3d90fd5b50828452600160208190526040852001541515610fb2565b50346101dd57806003193601126101dd576009546040516001600160a01b039091168152602090f35b50346101dd5760203660031901126101dd5760209060ff906040906001600160a01b036112886119be565b168152600484522054166040519015158152f35b50346101dd57806003193601126101dd5760206040516105dc8152f35b50346101dd57806003193601126101dd576020600754604051908152f35b50346101dd5760203660031901126101dd576001600160a01b036112f96119be565b16808252600160205260408220541580159061137c575b61131990611a7c565b808252600460205261133260ff60408420541615611ac0565b81526001602052604081209060405161134a81611910565b602060018454948584520154910152506d9dc5ada82b70b59df02000000000908015610c335760209104604051908152f35b50808252600160208190526040832001541515611310565b50346101dd5760203660031901126101dd576020906040906001600160a01b036113bc6119be565b168152600283522054604051908152f35b50346101dd5760203660031901126101dd576020906040906001600160a01b036113f56119be565b16808252600184528282205415801590611423575b61141390611a7c565b8152600183522054604051908152f35b5080825260018085528383200154151561140a565b50346101dd5760203660031901126101dd576020906001906040906001600160a01b036114636119be565b168082528385528282205415801590611490575b61148090611a7c565b8152828452200154604051908152f35b508082528385528282208401541515611477565b50346101dd5760203660031901126101dd57604080916114c26119be565b81602084516114d081611910565b82815201526001600160a01b03168082526001602052828220541580159061152d575b6114fc90611a7c565b8152600160205220815161150f81611910565b60206001835493848452015491019081528251918252516020820152f35b5080825260016020819052838320015415156114f3565b50346101dd57806003193601126101dd5761155d611b86565b6020600554604051908152f35b50346101dd5760803660031901126101dd576115846119be565b5061158d6119d4565b5060643567ffffffffffffffff81116115dc57366023820112156115dc57806004013567ffffffffffffffff81116108cf57369101602401116101dd57604051630a85bd0160e11b8152602090f35b5080fd5b50346118d95760c03660031901126118d95760043567ffffffffffffffff81116118d9576116129036906004016119a0565b60243567ffffffffffffffff81116118d9576116329036906004016119a0565b9060443567ffffffffffffffff81116118d9576116539036906004016119a0565b9160643567ffffffffffffffff81116118d9576116749036906004016119a0565b9260a43567ffffffffffffffff81116118d957366023820112156118d9576116a690369060248160040135910161196a565b50335f52600a6020526116c160843560405f205414156119ea565b335f52600a60205260405f206116d78154611a36565b905560405192610de1918285019185831067ffffffffffffffff8411176118dd57859461171861172692611734966124538939606086526060860190611a58565b908482036020860152611a58565b916040818403910152611a58565b03905ff080156118ce576001600160a01b031690813b156118d9576040516340c10f1960e01b815230600482015266038d7ea4c6800060248201525f8160448183875af180156118ce576118b7575b5061188f7fc5bb5b62bb7fbbf2b812f9f3c942829bdd3405b5efd572a19a9aa69f56eb37d691838552600360205265b5e620f4800060408620558385526001602052604085205415806118a0575b6117da90611a7c565b6040516117e681611910565b6602d79883d200008152600160208201673782dace9d9000008152868852816020526040882092518355519101558385526001602052837f4a1ff657786325c103fd3d6fa9953d85cc0ca6b40b7b16b308729320cf6b8b2360408088205483895260016020526001828a20015482519182526020820152a28385526001602052604085205484865260016020526001604087200154604051938493606085526060850190611a58565b91602084015260408301520390a280f35b5083855260016020819052604086200154156117d1565b6118c49193505f9061192c565b5f9161188f611783565b6040513d5f823e3d90fd5b5f80fd5b634e487b7160e01b5f52604160045260245ffd5b346118d9575f3660031901126118d957806602d79883d2000060209252f35b6040810190811067ffffffffffffffff8211176118dd57604052565b90601f8019910116810190811067ffffffffffffffff8211176118dd57604052565b67ffffffffffffffff81116118dd57601f01601f191660200190565b9291926119768261194e565b91611984604051938461192c565b8294818452818301116118d9578281602093845f960137010152565b9080601f830112156118d9578160206119bb9335910161196a565b90565b600435906001600160a01b03821682036118d957565b602435906001600160a01b03821682036118d957565b156119f157565b60405162461bcd60e51b815260206004820152601f60248201527f534c554746454153543a204641494c45442044554520544f205245504c4159006044820152606490fd5b5f198114611a445760010190565b634e487b7160e01b5f52601160045260245ffd5b805180835260209291819084018484015e5f828201840152601f01601f1916010190565b15611a8357565b60405162461bcd60e51b815260206004820152601560248201527429a62aa3a322a0a9aa101d102327a92124a22222a760591b6044820152606490fd5b15611ac757565b60405162461bcd60e51b815260206004820152602260248201527f534c554746454153543a20546f6b656e20616c72656164792067726164756174604482015261195960f21b6064820152608490fd5b8115610c33570490565b91908203918211611a4457565b91908201809211611a4457565b3d15611b65573d90611b4c8261194e565b91611b5a604051938461192c565b82523d5f602084013e565b606090565b60075490818102918183041490151715611a4457612710900490565b5f546001600160a01b03163303611b9957565b63118cdaa760e01b5f523360045260245ffd5b600260065414611bbd576002600655565b633ee5aeb560e01b5f5260045ffd5b60018060a01b03165f5260016020526020611c1560405f2092604051611bf181611910565b6001855495868352015493849101526d9dc5ada82b70b59df0200000000093611b2e565b8015610c33576119bb920490611b21565b60405163a9059cbb60e01b60208201526001600160a01b03929092166024830152604480830193909352918152611c6791611c6260648361192c565b611d1a565b565b80516001600160a01b03908116835260208083015182169084015260408083015162ffffff169084015260608083015160020b9084015260809182015116910152565b601e9060020b02908160020b918203611a4457565b908160209103126118d9575180151581036118d95790565b805115611ce65760200190565b634e487b7160e01b5f52603260045260245ffd5b805160011015611ce65760400190565b805160021015611ce65760600190565b5f80611d429260018060a01b03169360208151910182865af1611d3b611b3b565b90836123f4565b8051908115159182611d6a575b5050611d585750565b635274afe760e01b5f5260045260245ffd5b611d7d9250602080918301019101611cc1565b155f80611d4f565b60020b908160ff1d82810118620d89e8811161209f5763ffffffff9192600182167001fffcb933bd6fad37aa2d162d1a59400102600160801b189160028116612083575b60048116612067575b6008811661204b575b6010811661202f575b60208116612013575b60408116611ff7575b60808116611fdb575b6101008116611fbf575b6102008116611fa3575b6104008116611f87575b6108008116611f6b575b6110008116611f4f575b6120008116611f33575b6140008116611f17575b6180008116611efb575b620100008116611edf575b620200008116611ec4575b620400008116611ea9575b6208000016611e90575b5f12611e88575b0160201c90565b5f1904611e81565b6b048a170391f7dc42444e8fa290910260801c90611e7a565b6d2216e584f5fa1ea926041bedfe9890920260801c91611e70565b916e5d6af8dedb81196699c329225ee6040260801c91611e65565b916f09aa508b5b7a84e1c677de54f3e99bc90260801c91611e5a565b916f31be135f97d08fd981231505542fcfa60260801c91611e4f565b916f70d869a156d2a1b890bb3df62baf32f70260801c91611e45565b916fa9f746462d870fdf8a65dc1f90e061e50260801c91611e3b565b916fd097f3bdfd2022b8845ad8f792aa58250260801c91611e31565b916fe7159475a2c29b7443b29c7fa6e889d90260801c91611e27565b916ff3392b0822b70005940c7a398e4b70f30260801c91611e1d565b916ff987a7253ac413176f2b074cf7815e540260801c91611e13565b916ffcbe86c7900a88aedcffc83b479aa3a40260801c91611e09565b916ffe5dee046a99a2a811c461f1969c30530260801c91611dff565b916fff2ea16466c96a3843ec78b326b528610260801c91611df6565b916fff973b41fa98c081472e6896dfb254c00260801c91611ded565b916fffcb9843d60f6159c9db58835c9266440260801c91611de4565b916fffe5caca7e10e4e61c3624eaa0941cd00260801c91611ddb565b916ffff2e50f5f656932ef12357cf3c7fdcc0260801c91611dd2565b916ffff97272373d413259a46990580e213a0260801c91611dc9565b826345c3193d60e11b5f5260045260245ffd5b80156121f2576121806001825f908460801c806121e6575b508060401c806121d9575b508060201c806121cc575b508060101c806121bf575b508060081c806121b2575b508060041c806121a5575b508060021c80612198575b50821c612191575b811c1b6121218184611b17565b0160011c61212f8184611b17565b0160011c61213d8184611b17565b0160011c61214b8184611b17565b0160011c6121598184611b17565b0160011c6121678184611b17565b0160011c6121758184611b17565b0160011c8092611b17565b8082101561218c575090565b905090565b8101612114565b600291509101905f61210c565b600491509101905f612101565b600891509101905f6120f6565b601091509101905f6120eb565b602091509101905f6120e0565b604091509101905f6120d5565b9150506080905f6120ca565b505f90565b6119bb926122269290916001600160a01b038083169082161161222b575b90036001600160a01b03169061227e565b6123d1565b90612215565b6119bb92612226929091906001600160a01b0380821690831611612278575b6122666001600160a01b03828116908416612308565b9190036001600160a01b031691612351565b90612250565b90606082901b905f19600160601b8409928280851094039380850394858411156118d95714612301578190600160601b900981805f03168092046002816003021880820260020302808202600203028082026002030280820260020302808202600203028091026002030293600183805f03040190848311900302920304170290565b5091500490565b81810291905f1982820991838084109303928084039384600160601b11156118d9571461234857600160601b910990828211900360a01b910360601c1790565b50505060601c90565b91818302915f19818509938380861095039480860395868511156118d957146123c9579082910981805f03168092046002816003021880820260020302808202600203028082026002030280820260020302808202600203028091026002030293600183805f03040190848311900302920304170290565b505091500490565b906001600160801b0382168092036123e557565b6393dafdf160e01b5f5260045ffd5b90612418575080511561240957805190602001fd5b630a12f52160e11b5f5260045ffd5b81511580612449575b612429575090565b639996b31560e01b5f9081526001600160a01b0391909116600452602490fd5b50803b1561242156fe60806040523461056957610de1803803806100198161056d565b92833981016060828203126105695781516001600160401b0381116105695781610044918401610592565b60208301519092906001600160401b0381116105695782610066918301610592565b60408201519092906001600160401b038111610569576100869201610592565b82516001600160401b03811161036457600354600181811c9116801561055f575b602082101461034657601f81116104f1575b506020601f821160011461048e57819293945f92610483575b50508160011b915f199060031b1c1916176003555b81516001600160401b03811161036457600454600181811c91168015610479575b602082101461034657601f811161040b575b50602092601f82116001146103aa57928192935f9261039f575b50508160011b915f199060031b1c1916176004555b331561038c5760058054336001600160a01b0319821681179092556001600160a01b03167f8be0079c531659141344cd1fd0a4f28419497f9722a3daafe3b4186f6b6457e05f80a3600780546001600160a01b03191633179055600254633b9aca00810190811061037857600255335f525f60205260405f20633b9aca008154019055604051633b9aca0081525f7fddf252ad1be2c89b69c2b068fc378daa952ba7f163c4a11628f55a4df523b3ef60203393a380516001600160401b03811161036457600654600181811c9116801561035a575b602082101461034657601f81116102d8575b50602091601f8211600114610278579181925f9261026d575b50508160011b915f199060031b1c1916176006555b6040516107fd90816105e48239f35b015190505f80610249565b601f1982169260065f52805f20915f5b8581106102c0575083600195106102a8575b505050811b0160065561025e565b01515f1960f88460031b161c191690555f808061029a565b91926020600181928685015181550194019201610288565b818111156102305760065f52601f820160051c7ff652222313e28459528d920b65115c16c04f3efc82aaedc97be59f3f377c0d3f6020841061033e575b81601f9101920160051c03905f5b828110610331575050610230565b5f82820155600101610323565b5f9150610315565b634e487b7160e01b5f52602260045260245ffd5b90607f169061021e565b634e487b7160e01b5f52604160045260245ffd5b634e487b7160e01b5f52601160045260245ffd5b631e4fbdf760e01b5f525f60045260245ffd5b015190505f80610134565b601f1982169360045f52805f20915f5b8681106103f357508360019596106103db575b505050811b01600455610149565b01515f1960f88460031b161c191690555f80806103cd565b919260206001819286850151815501940192016103ba565b8181111561011a5760045f52601f820160051c7f8a35acfbc15ff81a39ae7d344fd709f28e8600b4aa8c65c6b64bfe7fe36bd19b60208410610471575b81601f9101920160051c03905f5b82811061046457505061011a565b5f82820155600101610456565b5f9150610448565b90607f1690610108565b015190505f806100d2565b601f1982169060035f52805f20915f5b8181106104d9575095836001959697106104c1575b505050811b016003556100e7565b01515f1960f88460031b161c191690555f80806104b3565b9192602060018192868b01518155019401920161049e565b818111156100b95760035f52601f820160051c7fc2575a0e9e593c00f959f8c92f12db2869c3395a3b0502d05e2516446f71f85b60208410610557575b81601f9101920160051c03905f5b82811061054a5750506100b9565b5f8282015560010161053c565b5f915061052e565b90607f16906100a7565b5f80fd5b6040519190601f01601f191682016001600160401b0381118382101761036457604052565b81601f82011215610569578051906001600160401b038211610364576105c1601f8301601f191660200161056d565b928284526020838301011161056957815f9260208093018386015e830101529056fe6080806040526004361015610012575f80fd5b5f3560e01c90816306fdde03146105d157508063095ea7b31461054f57806318160ddd1461053257806323b872dd14610452578063313ce5671461043757806340c10f191461038b57806370a0823114610354578063715018a6146102f95780638da5cb5b146102d157806395d89b41146101b6578063a9059cbb14610185578063dd62ed3e146101355763f2fde38b146100ab575f80fd5b34610131576020366003190112610131576100c46106ca565b6100cc6107a0565b6001600160a01b0316801561011e57600580546001600160a01b0319811683179091556001600160a01b03167f8be0079c531659141344cd1fd0a4f28419497f9722a3daafe3b4186f6b6457e05f80a3005b631e4fbdf760e01b5f525f60045260245ffd5b5f80fd5b346101315760403660031901126101315761014e6106ca565b6101566106e0565b6001600160a01b039182165f908152600160209081526040808320949093168252928352819020549051908152f35b34610131576040366003190112610131576101ab6101a16106ca565b60243590336106f6565b602060405160018152f35b34610131575f366003190112610131576040515f6004548060011c906001811680156102c7575b6020831081146102b3578285529081156102975750600114610242575b50819003601f01601f191681019067ffffffffffffffff82118183101761022e5761022a829182604052826106a0565b0390f35b634e487b7160e01b5f52604160045260245ffd5b905060045f527f8a35acfbc15ff81a39ae7d344fd709f28e8600b4aa8c65c6b64bfe7fe36bd19b5f905b828210610281575060209150820101826101fa565b600181602092548385880101520191019061026c565b90506020925060ff191682840152151560051b820101826101fa565b634e487b7160e01b5f52602260045260245ffd5b91607f16916101dd565b34610131575f366003190112610131576005546040516001600160a01b039091168152602090f35b34610131575f366003190112610131576103116107a0565b600580546001600160a01b031981169091555f906001600160a01b03167f8be0079c531659141344cd1fd0a4f28419497f9722a3daafe3b4186f6b6457e08280a3005b34610131576020366003190112610131576001600160a01b036103756106ca565b165f525f602052602060405f2054604051908152f35b34610131576040366003190112610131576103a46106ca565b602435906103b06107a0565b6001600160a01b031690811561042457600254908082018092116104105760207fddf252ad1be2c89b69c2b068fc378daa952ba7f163c4a11628f55a4df523b3ef915f9360025584845283825260408420818154019055604051908152a3005b634e487b7160e01b5f52601160045260245ffd5b63ec442f0560e01b5f525f60045260245ffd5b34610131575f36600319011261013157602060405160128152f35b346101315760603660031901126101315761046b6106ca565b6104736106e0565b6001600160a01b0382165f8181526001602081815260408084203385529091529091205491936044359392909181016104b2575b506101ab93506106f6565b8381106105175784156105045733156104f1576101ab945f52600160205260405f2060018060a01b0333165f526020528360405f2091039055846104a7565b634a1406b160e11b5f525f60045260245ffd5b63e602df0560e01b5f525f60045260245ffd5b8390637dc7a0d960e11b5f523360045260245260445260645ffd5b34610131575f366003190112610131576020600254604051908152f35b34610131576040366003190112610131576105686106ca565b602435903315610504576001600160a01b03169081156104f157335f52600160205260405f20825f526020528060405f20556040519081527f8c5be1e5ebec7d5bd14f71427d1e84f3dd0314c0f7b2291e5b200ac8c7c3b92560203392a3602060405160018152f35b34610131575f366003190112610131575f6003548060011c90600181168015610696575b6020831081146102b35782855290811561029757506001146106415750819003601f01601f191681019067ffffffffffffffff82118183101761022e5761022a829182604052826106a0565b905060035f527fc2575a0e9e593c00f959f8c92f12db2869c3395a3b0502d05e2516446f71f85b5f905b828210610680575060209150820101826101fa565b600181602092548385880101520191019061066b565b91607f16916105f5565b602060409281835280519182918282860152018484015e5f828201840152601f01601f1916010190565b600435906001600160a01b038216820361013157565b602435906001600160a01b038216820361013157565b6001600160a01b031690811561078d576001600160a01b031691821561042457815f525f60205260405f205481811061077457817fddf252ad1be2c89b69c2b068fc378daa952ba7f163c4a11628f55a4df523b3ef92602092855f525f84520360405f2055845f525f825260405f20818154019055604051908152a3565b8263391434e360e21b5f5260045260245260445260645ffd5b634b637e8f60e11b5f525f60045260245ffd5b6005546001600160a01b031633036107b457565b63118cdaa760e01b5f523360045260245ffdfea26469706673582212207e179b6b5237dc45993fd8a6aa81772e65062d65930feb6a0bffc3471238808364736f6c63430008210033a2646970667358221220ad2d6094a6be3af59557fb3ae9659f69eaad3c4280d9755592edc0fdb681762a64736f6c63430008210033","linkReferences":{}},"methodIdentifiers":{"buy(address,uint256)":"cce7ec13","calculateFee(uint256)":"99a5d747","createToken(string,string,string,string,uint256,bytes)":"0f854296","getCollectedFee()":"271ec305","getETHQuote(address)":"601ea5fc","getInitialTokenSupply()":"06b1557b","getInitialVEthSupply()":"9877ab97","getK()":"ee39e7a0","getLockedTokens(address)":"6b2d95d4","getNonce()":"d087d288","getPoolFee()":"6741fad2","getPoolManager()":"78d84da3","getPoolSupply(address)":"2f8d3a66","getPositionManager()":"6a22dede","getSlugFee()":"60481737","getStoredETH(address)":"514ec523","getTickSpacing()":"7db3fd69","getTokenQuote(address)":"920988c6","getTokenReserves(address)":"4e0370c8","getVEthReserves(address)":"46daa5d3","isGraduated(address)":"68a4c8b7","onERC721Received(address,address,uint256,bytes)":"150b7a02","owner()":"8da5cb5b","renounceOwnership()":"715018a6","sell(address,uint256,uint256)":"6a272462","setSlugFee(uint256)":"b7a1deab","transferOwnership(address)":"f2fde38b","withdrawFee(uint256)":"be357616"},"id":84}