{"abi":[{"type":"constructor","inputs":[{"name":"_slugFee","type":"uint256","internalType":"uint256"},{"name":"poolManager_","type":"address","internalType":"address"},{"name":"positionManager_","type":"address","internalType":"address"}],"stateMutability":"nonpayable"},{"type":"receive","stateMutability":"payable"},{"type":"function","name":"buy","inputs":[{"name":"token","type":"address","internalType":"address"}],"outputs":[],"stateMutability":"payable"},{"type":"function","name":"calculateFee","inputs":[{"name":"ETH","type":"uint256","internalType":"uint256"}],"outputs":[{"name":"","type":"uint256","internalType":"uint256"}],"stateMutability":"view"},{"type":"function","name":"createToken","inputs":[{"name":"name","type":"string","internalType":"string"},{"name":"symbol","type":"string","internalType":"string"},{"name":"metadata_uri","type":"string","internalType":"string"}],"outputs":[],"stateMutability":"nonpayable"},{"type":"function","name":"getETHQuote","inputs":[{"name":"token","type":"address","internalType":"address"}],"outputs":[{"name":"","type":"uint256","internalType":"uint256"}],"stateMutability":"view"},{"type":"function","name":"getInitialTokenSupply","inputs":[],"outputs":[{"name":"","type":"uint256","internalType":"uint256"}],"stateMutability":"pure"},{"type":"function","name":"getInitialVEthSupply","inputs":[],"outputs":[{"name":"","type":"uint256","internalType":"uint256"}],"stateMutability":"pure"},{"type":"function","name":"getK","inputs":[],"outputs":[{"name":"","type":"uint256","internalType":"uint256"}],"stateMutability":"pure"},{"type":"function","name":"getLockedTokens","inputs":[{"name":"token","type":"address","internalType":"address"}],"outputs":[{"name":"","type":"uint256","internalType":"uint256"}],"stateMutability":"view"},{"type":"function","name":"getPoolFee","inputs":[],"outputs":[{"name":"","type":"uint24","internalType":"uint24"}],"stateMutability":"pure"},{"type":"function","name":"getPoolManager","inputs":[],"outputs":[{"name":"","type":"address","internalType":"address"}],"stateMutability":"view"},{"type":"function","name":"getPoolSupply","inputs":[{"name":"token","type":"address","internalType":"address"}],"outputs":[{"name":"","type":"tuple","internalType":"struct supply","components":[{"name":"_tokenSupply","type":"uint256","internalType":"uint256"},{"name":"_VETH","type":"uint256","internalType":"uint256"}]}],"stateMutability":"view"},{"type":"function","name":"getPositionManager","inputs":[],"outputs":[{"name":"","type":"address","internalType":"address"}],"stateMutability":"view"},{"type":"function","name":"getSlugFee","inputs":[],"outputs":[{"name":"","type":"uint256","internalType":"uint256"}],"stateMutability":"view"},{"type":"function","name":"getStoredETH","inputs":[{"name":"token","type":"address","internalType":"address"}],"outputs":[{"name":"","type":"uint256","internalType":"uint256"}],"stateMutability":"view"},{"type":"function","name":"getTickSpacing","inputs":[],"outputs":[{"name":"","type":"int24","internalType":"int24"}],"stateMutability":"pure"},{"type":"function","name":"getTokenQuote","inputs":[{"name":"token","type":"address","internalType":"address"}],"outputs":[{"name":"","type":"uint256","internalType":"uint256"}],"stateMutability":"view"},{"type":"function","name":"getTokenReserves","inputs":[{"name":"token","type":"address","internalType":"address"}],"outputs":[{"name":"","type":"uint256","internalType":"uint256"}],"stateMutability":"view"},{"type":"function","name":"getVEthReserves","inputs":[{"name":"token","type":"address","internalType":"address"}],"outputs":[{"name":"","type":"uint256","internalType":"uint256"}],"stateMutability":"view"},{"type":"function","name":"isGraduated","inputs":[{"name":"token","type":"address","internalType":"address"}],"outputs":[{"name":"","type":"bool","internalType":"bool"}],"stateMutability":"view"},{"type":"function","name":"onERC721Received","inputs":[{"name":"","type":"address","internalType":"address"},{"name":"","type":"address","internalType":"address"},{"name":"","type":"uint256","internalType":"uint256"},{"name":"","type":"bytes","internalType":"bytes"}],"outputs":[{"name":"","type":"bytes4","internalType":"bytes4"}],"stateMutability":"pure"},{"type":"function","name":"owner","inputs":[],"outputs":[{"name":"","type":"address","internalType":"address"}],"stateMutability":"view"},{"type":"function","name":"renounceOwnership","inputs":[],"outputs":[],"stateMutability":"nonpayable"},{"type":"function","name":"sell","inputs":[{"name":"token","type":"address","internalType":"address"},{"name":"amount","type":"uint256","internalType":"uint256"}],"outputs":[],"stateMutability":"nonpayable"},{"type":"function","name":"setSlugFee","inputs":[{"name":"fee","type":"uint256","internalType":"uint256"}],"outputs":[],"stateMutability":"nonpayable"},{"type":"function","name":"transferOwnership","inputs":[{"name":"newOwner","type":"address","internalType":"address"}],"outputs":[],"stateMutability":"nonpayable"},{"type":"function","name":"withdrawFee","inputs":[{"name":"amount","type":"uint256","internalType":"uint256"}],"outputs":[],"stateMutability":"nonpayable"},{"type":"event","name":"OwnershipTransferred","inputs":[{"name":"previousOwner","type":"address","indexed":true,"internalType":"address"},{"name":"newOwner","type":"address","indexed":true,"internalType":"address"}],"anonymous":false},{"type":"event","name":"TokenBought","inputs":[{"name":"token","type":"address","indexed":true,"internalType":"address"},{"name":"VETH","type":"uint256","indexed":false,"internalType":"uint256"},{"name":"amount","type":"uint256","indexed":false,"internalType":"uint256"}],"anonymous":false},{"type":"event","name":"TokenCreated","inputs":[{"name":"token","type":"address","indexed":true,"internalType":"address"}],"anonymous":false},{"type":"event","name":"TokenSold","inputs":[{"name":"token","type":"address","indexed":true,"internalType":"address"},{"name":"VETH","type":"uint256","indexed":false,"internalType":"uint256"},{"name":"amount","type":"uint256","indexed":false,"internalType":"uint256"}],"anonymous":false},{"type":"event","name":"poolcreated","inputs":[{"name":"tokenA","type":"address","indexed":true,"internalType":"address"}],"anonymous":false},{"type":"event","name":"tokenDeployed","inputs":[{"name":"token","type":"address","indexed":true,"internalType":"address"}],"anonymous":false},{"type":"event","name":"tokenGraduated","inputs":[{"name":"token","type":"address","indexed":true,"internalType":"address"}],"anonymous":false},{"type":"error","name":"AddressEmptyCode","inputs":[{"name":"target","type":"address","internalType":"address"}]},{"type":"error","name":"AddressInsufficientBalance","inputs":[{"name":"account","type":"address","internalType":"address"}]},{"type":"error","name":"FailedInnerCall","inputs":[]},{"type":"error","name":"OwnableInvalidOwner","inputs":[{"name":"owner","type":"address","internalType":"address"}]},{"type":"error","name":"OwnableUnauthorizedAccount","inputs":[{"name":"account","type":"address","internalType":"address"}]},{"type":"error","name":"ReentrancyGuardReentrantCall","inputs":[]},{"type":"error","name":"SafeERC20FailedOperation","inputs":[{"name":"token","type":"address","internalType":"address"}]},{"type":"error","name":"TooSmallTransaction","inputs":[{"name":"token","type":"address","internalType":"address"},{"name":"value","type":"uint256","internalType":"uint256"}]},{"type":"error","name":"TransactionFailure","inputs":[{"name":"token","type":"address","internalType":"address"},{"name":"buy","type":"bool","internalType":"bool"},{"name":"VETH","type":"uint256","internalType":"uint256"},{"name":"tokens","type":"uint256","internalType":"uint256"}]},{"type":"error","name":"VETH_Underflow","inputs":[{"name":"token","type":"address","internalType":"address"}]}],"bytecode":{"object":"0x60803461010257601f61318438819003918201601f19168301916001600160401b03831184841017610106578084926060946040528339810103126101025780519061005960406100526020840161011a565b920161011a565b9033156100ef575f8054336001600160a01b0319821681178355604051959290916001600160a01b0316907f8be0079c531659141344cd1fd0a4f28419497f9722a3daafe3b4186f6b6457e09080a35f6005556001600655600755600880546001600160a01b039283166001600160a01b03199182161790915560098054939092169216919091179055613055908161012f8239f35b631e4fbdf760e01b5f525f60045260245ffd5b5f80fd5b634e487b7160e01b5f52604160045260245ffd5b51906001600160a01b03821682036101025756fe608080604052600436101561001c575b50361561001a575f80fd5b005b5f905f3560e01c90816306b1557b1461170d57508063150b7a021461169c5780632f8d3a66146115f457806346daa5d31461157d5780634e0370c814611509578063514ec523146114d1578063601ea5fc1461141257806360481737146113f55780636741fad2146113d957806368a4c8b71461139c5780636a22dede146113745780636b2d95d41461133c5780636c197ff5146110e4578063715018a61461108d57806378d84da3146110655780637db3fd691461104a5780638da5cb5b14611023578063920988c614610f6357806394aed7d014610d055780639877ab9714610ce257806399a5d74714610cbb578063b7a1deab14610c98578063be35761614610bc2578063ee39e7a014610b97578063f088d547146101ca5763f2fde38b0361000f57346101c75760203660031901126101c75761015b61172c565b6101636119b7565b6001600160a01b031680156101b35781546001600160a01b03198116821783556001600160a01b03167f8be0079c531659141344cd1fd0a4f28419497f9722a3daafe3b4186f6b6457e08380a380f35b631e4fbdf760e01b82526004829052602482fd5b80fd5b5060203660031901126101c7576101df61172c565b6001600160a01b0381168083526001602052604083205490919015801590610b7f575b61020b906117f8565b818352600460205261022460ff6040852054161561183c565b61022c61193a565b6127103410610b675761023e3461191e565b90610249823461189d565b908385526001602052602061028c604087209360405161026881611758565b6001865496878352015493849101526d9dc5ada82b70b59df02000000000926118be565b908115610b535760209386926102a392049061189d565b8187526001845260408720946040516102bb81611758565b600187549788835201549586910152878683115f14610a9d5750505050826102e29161195a565b848080806102ef8561191e565b956102fc876005546118be565b600555610335866103166103108a836118be565b3461189d565b928b855260026020526040852061032e8382546118be565b90556118be565b60016040519161034483611758565b848352602083019081528b855281602052604085209251835551910155335af161036c6118cb565b5015610a7257826103ac7f28cab0d660ed8aedd61a8c9db00b97f6a2d67e07d87795994f440b18bc5f1aa3936040936103a7889733896119dd565b6118be565b9082519182526020820152a25b8082526001602052604082206040516103d181611758565b602060018354938484520154910152156103ef575b50600160065580f35b808252600160205260408220602060016040519261040c84611758565b80548452015491015280825260026020526040822054818352600360205260408320548015610a1a5781156109d6576040519060a0820182811067ffffffffffffffff8211176109c2576040528482528360208301526105dc6040830152601e606083015284608083015261048c610487848360c01b611893565b611e69565b6001600160a01b03811161097d5760085460405163313b65df60e11b81526001600160a01b0392831695929091602091839160c49183918c91166104d3600484018b611a20565b8a60a48401525af1801561097257610938575b506104f361738619611a63565b926104ff617387611a63565b948261050a86611b3c565b918561051589611b3c565b9182856001600160a01b038083169082161161092c575b50506001600160a01b03851681116108cb57505061054992611fe8565b935b60095460405163095ea7b360e01b81526001600160a01b039091166004820152602481018590526020816044818c8c5af180156108c057610893575b50604051600160f91b6020820152600d60f81b6021820152600560fa1b6022820152600381529388906105bb602387611774565b604051966105ca608089611774565b600388526060835b81811061087d575050826001600160801b0361070298999695938161065c9461066a975060209d8e97604051966106098a89611774565b875261061c6040519b8c9a8b0190611a20565b60020b60c089015260020b60e0880152166101008601528189166101208601521661014084015230610160840152610180808401526101a08301906118fa565b03601f198101835282611774565b61067382611a90565b5261067d81611a90565b5060405187868201528660408201526040815261069b606082611774565b6106a482611ab1565b526106ae81611ab1565b506040518786820152306040820152604081526106cc606082611774565b6106d582611ac1565b526106df81611ac1565b5060018060a01b03600954169360405193849160408884015260608301906118fa565b91601f1982840301604083015280518084528784019388808360051b8301019301948b915b8a84841061084e575050505050610747925003601f198101845283611774565b61012c42019283421161083a579081879493923b1561083657849261078a9260405180968195829463dd46508f60e01b84526040600485015260448401906118fa565b90602483015203925af1801561082b57610812575b5090826004925260038152836040812055827fe75b506e79caf6c2d40b9c3d5c97aa086caf52bcc26450f372ce3457a4a7fbfb8580a28284525260408220805460ff191660011790557f7cbf17c3ec08f3fb55efc20f60b3a565b4e8539b5e8940b90d37a0cdca352b408280a25f6103e6565b8161081c91611774565b61082757825f61079f565b8280fd5b6040513d84823e3d90fd5b8480fd5b634e487b7160e01b87526011600452602487fd5b60019294965061086b81929496601f1986820301875289516118fa565b97019301930190928794929593610727565b60606020828c018101919091528d9550016105d2565b6108b49060203d6020116108b9575b6108ac8183611774565b810190611a78565b610587565b503d6108a2565b6040513d8b823e3d90fd5b909290916001600160a01b0381168310156109205782916108f0916108f69594611fe8565b93611fae565b6001600160801b0381166001600160801b038316105f1461091957505b9361054b565b9050610913565b91505061091392611fae565b90955092505f8061052c565b6020813d60201161096a575b8161095160209383611774565b8101031261096657518060020b8103156104e6575b8680fd5b3d9150610944565b6040513d89823e3d90fd5b60405162461bcd60e51b815260206004820152601860248201527f50726963654d6174683a2073717274206f766572666c6f7700000000000000006044820152606490fd5b634e487b7160e01b86526041600452602486fd5b606460405162461bcd60e51b815260206004820152602060248201527f534c554746454153543a204e6f2045544820666f722067726164756174696f6e6044820152fd5b60405162461bcd60e51b815260206004820152602a60248201527f534c554746454153543a204e6f206c6f636b656420746f6b656e7320666f722060448201526933b930b23ab0ba34b7b760b11b6064820152608490fd5b6084848660405191639d743e2f60e01b83526004830152600160248301523460448301526064820152fd5b604094507f28cab0d660ed8aedd61a8c9db00b97f6a2d67e07d87795994f440b18bc5f1aa3956001610b1086610b0a87610b4298999c8b610ade8a3461189d565b988995610aed8c6005546118be565b6005558152600260205220610b038582546118be565b905561189d565b936118be565b875192610b1c84611758565b835260208301908152898c5281602052878c2092518355519101556103a78433896119dd565b9082519182526020820152a26103b9565b634e487b7160e01b5f52601260045260245ffd5b630a305e2560e01b8352600482905234602452604483fd5b50818352600160208190526040842001541515610202565b50346101c757806003193601126101c7575060206d9dc5ada82b70b59df02000000000604051908152f35b50346101c75760203660031901126101c757600435610bdf6119b7565b8060055410610c5357815482918291829182916001600160a01b03165af1610c056118cb565b5015610c0e5780f35b60405162461bcd60e51b815260206004820152601e60248201527f534c554746454153543a205452414e53414354494f4e204641494c55524500006044820152606490fd5b60405162461bcd60e51b815260206004820152601f60248201527f534c554746454153543a20496e73756666696369656e742062616c616e6365006044820152606490fd5b50346101c75760203660031901126101c757610cb26119b7565b60043560075580f35b50346101c75760203660031901126101c7576020610cda60043561191e565b604051908152f35b50346101c757806003193601126101c7576020604051673782dace9d9000008152f35b5034610f4b576060366003190112610f4b5760043567ffffffffffffffff8111610f4b57610d379036906004016117b2565b60243567ffffffffffffffff8111610f4b57610d579036906004016117b2565b60443567ffffffffffffffff8111610f4b57610d779036906004016117b2565b60405192610e16918285019185831067ffffffffffffffff841117610f4f578594610db6610dc492610dd29661220a89396060865260608601906118fa565b9084820360208601526118fa565b9160408184039101526118fa565b03905ff08015610f40576001600160a01b0316803b15610f4b576040516340c10f1960e01b815230600482015266038d7ea4c6800060248201525f8160448183865af18015610f4057610f2b575b50808252600360205265b5e620f480006040832055604051610e4181611758565b6602d79883d200008152600160208201673782dace9d90000081528385528160205260408520925183555191015580825260016020526040822054151580610f13575b610e8d906117f8565b604051610e9981611758565b6602d79883d200008152600160208201673782dace9d900000815283855281602052604085209251835551910155807f4170ca3985e8a4e2d4e0c16fd36c60373a69cf7decb842d2221595fc314aa9ac8380a27f2e2b3f61b70d2d131b2a807371103cc98d51adcaa5e9a8f9c32658ad8426e74e8280a280f35b50808252600160208190526040832001541515610e84565b610f389192505f90611774565b5f905f610e20565b6040513d5f823e3d90fd5b5f80fd5b634e487b7160e01b5f52604160045260245ffd5b34610f4b576020366003190112610f4b576001600160a01b03610f8461172c565b16805f52600160205260405f205415801590611006575b610fa4906117f8565b805f526004602052610fbd60ff60405f2054161561183c565b5f526001602052602060405f20600160405191610fd983611758565b80548352015491829101526d9dc5ada82b70b59df02000000000908015610b535760209104604051908152f35b50805f526001602052610fa4600160405f20015415159050610f9b565b34610f4b575f366003190112610f4b575f546040516001600160a01b039091168152602090f35b34610f4b575f366003190112610f4b576020604051601e8152f35b34610f4b575f366003190112610f4b576008546040516001600160a01b039091168152602090f35b34610f4b575f366003190112610f4b576110a56119b7565b5f80546001600160a01b0319811682556001600160a01b03167f8be0079c531659141344cd1fd0a4f28419497f9722a3daafe3b4186f6b6457e08280a3005b34610f4b576040366003190112610f4b576110fd61172c565b6001600160a01b0381165f818152600160205260409020549091602435911580159061131f575b61112d906117f8565b825f52600460205261114660ff60405f2054161561183c565b61114e61193a565b604051636eb1769f60e11b8152336004820152306024820152602081604481875afa8015610f405783915f916112e8575b5091611190826111959410156117f8565b61195a565b905f8080806112766111a68761191e565b8883526002602052604083206111bd89825461189d565b90556111cb816005546118be565b600555888352600160205260408320600161120d8a6112068b604051956111f187611758565b602086825492838a52015497019687526118be565b935161189d565b6040519261121a84611758565b8352602083019081528b8652816020526040862092518355519101556112706040516323b872dd60e01b60208201523360248201523060448201528860648201526064815261126a608482611774565b8a611ad1565b8761189d565b335af16112816118cb565b50156112be577f35ea94addbc62df281ade49cc2ad9b3d9259166170cf702928b4ddc045f7256e9160409182519182526020820152a26001600655005b8260849160405191639d743e2f60e01b835260048301525f60248301525f60448301526064820152fd5b9150506020813d602011611317575b8161130460209383611774565b81010312610f4b5751829061119061117f565b3d91506112f7565b50825f52600160205261112d600160405f20015415159050611124565b34610f4b576020366003190112610f4b576001600160a01b0361135d61172c565b165f526003602052602060405f2054604051908152f35b34610f4b575f366003190112610f4b576009546040516001600160a01b039091168152602090f35b34610f4b576020366003190112610f4b576001600160a01b036113bd61172c565b165f526004602052602060ff60405f2054166040519015158152f35b34610f4b575f366003190112610f4b5760206040516105dc8152f35b34610f4b575f366003190112610f4b576020600754604051908152f35b34610f4b576020366003190112610f4b576001600160a01b0361143361172c565b16805f52600160205260405f2054158015906114b4575b611453906117f8565b805f52600460205261146c60ff60405f2054161561183c565b5f52600160205260405f2060405161148381611758565b6020600183549384845201549101526d9dc5ada82b70b59df02000000000908015610b535760209104604051908152f35b50805f526001602052611453600160405f2001541515905061144a565b34610f4b576020366003190112610f4b576001600160a01b036114f261172c565b165f526002602052602060405f2054604051908152f35b34610f4b576020366003190112610f4b576001600160a01b0361152a61172c565b16805f52600160205260405f205415801590611560575b61154a906117f8565b5f526001602052602060405f2054604051908152f35b50805f52600160205261154a600160405f20015415159050611541565b34610f4b576020366003190112610f4b576001600160a01b0361159e61172c565b16805f52600160205260405f2054158015906115d7575b6115be906117f8565b5f5260016020526020600160405f200154604051908152f35b50805f5260016020526115be600160405f200154151590506115b5565b34610f4b576020366003190112610f4b5761160d61172c565b5f602060405161161c81611758565b82815201526001600160a01b03165f818152600160205260409020541580159061167f575b61164a906117f8565b5f5260016020526040805f20815161166181611758565b60206001835493848452015491019081528251918252516020820152f35b50805f52600160205261164a600160405f20015415159050611641565b34610f4b576080366003190112610f4b576116b561172c565b506116be611742565b5060643567ffffffffffffffff8111610f4b5736602382011215610f4b57806004013567ffffffffffffffff8111610f4b5736910160240111610f4b57604051630a85bd0160e11b8152602090f35b34610f4b575f366003190112610f4b57806602d79883d2000060209252f35b600435906001600160a01b0382168203610f4b57565b602435906001600160a01b0382168203610f4b57565b6040810190811067ffffffffffffffff821117610f4f57604052565b90601f8019910116810190811067ffffffffffffffff821117610f4f57604052565b67ffffffffffffffff8111610f4f57601f01601f191660200190565b81601f82011215610f4b578035906117c982611796565b926117d76040519485611774565b82845260208383010111610f4b57815f926020809301838601378301015290565b156117ff57565b60405162461bcd60e51b815260206004820152601560248201527429a62aa3a322a0a9aa101d102327a92124a22222a760591b6044820152606490fd5b1561184357565b60405162461bcd60e51b815260206004820152602260248201527f534c554746454153543a20546f6b656e20616c72656164792067726164756174604482015261195960f21b6064820152608490fd5b8115610b53570490565b919082039182116118aa57565b634e487b7160e01b5f52601160045260245ffd5b919082018092116118aa57565b3d156118f5573d906118dc82611796565b916118ea6040519384611774565b82523d5f602084013e565b606090565b805180835260209291819084018484015e5f828201840152601f01601f1916010190565b600754908181029181830414901517156118aa57612710900490565b60026006541461194b576002600655565b633ee5aeb560e01b5f5260045ffd5b60018060a01b03165f52600160205260206119a360405f209260405161197f81611758565b6001855495868352015493849101526d9dc5ada82b70b59df02000000000936118be565b8015610b53576119b492049061189d565b90565b5f546001600160a01b031633036119ca57565b63118cdaa760e01b5f523360045260245ffd5b60405163a9059cbb60e01b60208201526001600160a01b03929092166024830152604480830193909352918152611a1e91611a19606483611774565b611ad1565b565b80516001600160a01b03908116835260208083015182169084015260408083015162ffffff169084015260608083015160020b9084015260809182015116910152565b601e9060020b02908160020b9182036118aa57565b90816020910312610f4b57518015158103610f4b5790565b805115611a9d5760200190565b634e487b7160e01b5f52603260045260245ffd5b805160011015611a9d5760400190565b805160021015611a9d5760600190565b5f80611af99260018060a01b03169360208151910182865af1611af26118cb565b90836121ab565b8051908115159182611b21575b5050611b0f5750565b635274afe760e01b5f5260045260245ffd5b611b349250602080918301019101611a78565b155f80611b06565b60020b908160ff1d82810118620d89e88111611e565763ffffffff9192600182167001fffcb933bd6fad37aa2d162d1a59400102600160801b189160028116611e3a575b60048116611e1e575b60088116611e02575b60108116611de6575b60208116611dca575b60408116611dae575b60808116611d92575b6101008116611d76575b6102008116611d5a575b6104008116611d3e575b6108008116611d22575b6110008116611d06575b6120008116611cea575b6140008116611cce575b6180008116611cb2575b620100008116611c96575b620200008116611c7b575b620400008116611c60575b6208000016611c47575b5f12611c3f575b0160201c90565b5f1904611c38565b6b048a170391f7dc42444e8fa290910260801c90611c31565b6d2216e584f5fa1ea926041bedfe9890920260801c91611c27565b916e5d6af8dedb81196699c329225ee6040260801c91611c1c565b916f09aa508b5b7a84e1c677de54f3e99bc90260801c91611c11565b916f31be135f97d08fd981231505542fcfa60260801c91611c06565b916f70d869a156d2a1b890bb3df62baf32f70260801c91611bfc565b916fa9f746462d870fdf8a65dc1f90e061e50260801c91611bf2565b916fd097f3bdfd2022b8845ad8f792aa58250260801c91611be8565b916fe7159475a2c29b7443b29c7fa6e889d90260801c91611bde565b916ff3392b0822b70005940c7a398e4b70f30260801c91611bd4565b916ff987a7253ac413176f2b074cf7815e540260801c91611bca565b916ffcbe86c7900a88aedcffc83b479aa3a40260801c91611bc0565b916ffe5dee046a99a2a811c461f1969c30530260801c91611bb6565b916fff2ea16466c96a3843ec78b326b528610260801c91611bad565b916fff973b41fa98c081472e6896dfb254c00260801c91611ba4565b916fffcb9843d60f6159c9db58835c9266440260801c91611b9b565b916fffe5caca7e10e4e61c3624eaa0941cd00260801c91611b92565b916ffff2e50f5f656932ef12357cf3c7fdcc0260801c91611b89565b916ffff97272373d413259a46990580e213a0260801c91611b80565b826345c3193d60e11b5f5260045260245ffd5b8015611fa957611f376001825f908460801c80611f9d575b508060401c80611f90575b508060201c80611f83575b508060101c80611f76575b508060081c80611f69575b508060041c80611f5c575b508060021c80611f4f575b50821c611f48575b811c1b611ed88184611893565b0160011c611ee68184611893565b0160011c611ef48184611893565b0160011c611f028184611893565b0160011c611f108184611893565b0160011c611f1e8184611893565b0160011c611f2c8184611893565b0160011c8092611893565b80821015611f43575090565b905090565b8101611ecb565b600291509101905f611ec3565b600491509101905f611eb8565b600891509101905f611ead565b601091509101905f611ea2565b602091509101905f611e97565b604091509101905f611e8c565b9150506080905f611e81565b505f90565b6119b492611fdd9290916001600160a01b0380831690821611611fe2575b90036001600160a01b031690612035565b612188565b90611fcc565b6119b492611fdd929091906001600160a01b038082169083161161202f575b61201d6001600160a01b038281169084166120bf565b9190036001600160a01b031691612108565b90612007565b90606082901b905f19600160601b840992828085109403938085039485841115610f4b57146120b8578190600160601b900981805f03168092046002816003021880820260020302808202600203028082026002030280820260020302808202600203028091026002030293600183805f03040190848311900302920304170290565b5091500490565b81810291905f1982820991838084109303928084039384600160601b1115610f4b57146120ff57600160601b910990828211900360a01b910360601c1790565b50505060601c90565b91818302915f1981850993838086109503948086039586851115610f4b5714612180579082910981805f03168092046002816003021880820260020302808202600203028082026002030280820260020302808202600203028091026002030293600183805f03040190848311900302920304170290565b505091500490565b906001600160801b03821680920361219c57565b6393dafdf160e01b5f5260045ffd5b906121cf57508051156121c057805190602001fd5b630a12f52160e11b5f5260045ffd5b81511580612200575b6121e0575090565b639996b31560e01b5f9081526001600160a01b0391909116600452602490fd5b50803b156121d856fe60806040523461056957610e16803803806100198161056d565b92833981016060828203126105695781516001600160401b0381116105695781610044918401610592565b60208301519092906001600160401b0381116105695782610066918301610592565b60408201519092906001600160401b038111610569576100869201610592565b82516001600160401b03811161036457600354600181811c9116801561055f575b602082101461034657601f81116104f1575b506020601f821160011461048e57819293945f92610483575b50508160011b915f199060031b1c1916176003555b81516001600160401b03811161036457600454600181811c91168015610479575b602082101461034657601f811161040b575b50602092601f82116001146103aa57928192935f9261039f575b50508160011b915f199060031b1c1916176004555b331561038c5760058054336001600160a01b0319821681179092556001600160a01b03167f8be0079c531659141344cd1fd0a4f28419497f9722a3daafe3b4186f6b6457e05f80a3600780546001600160a01b03191633179055600254633b9aca00810190811061037857600255335f525f60205260405f20633b9aca008154019055604051633b9aca0081525f7fddf252ad1be2c89b69c2b068fc378daa952ba7f163c4a11628f55a4df523b3ef60203393a380516001600160401b03811161036457600654600181811c9116801561035a575b602082101461034657601f81116102d8575b50602091601f8211600114610278579181925f9261026d575b50508160011b915f199060031b1c1916176006555b60405161083290816105e48239f35b015190505f80610249565b601f1982169260065f52805f20915f5b8581106102c0575083600195106102a8575b505050811b0160065561025e565b01515f1960f88460031b161c191690555f808061029a565b91926020600181928685015181550194019201610288565b818111156102305760065f52601f820160051c7ff652222313e28459528d920b65115c16c04f3efc82aaedc97be59f3f377c0d3f6020841061033e575b81601f9101920160051c03905f5b828110610331575050610230565b5f82820155600101610323565b5f9150610315565b634e487b7160e01b5f52602260045260245ffd5b90607f169061021e565b634e487b7160e01b5f52604160045260245ffd5b634e487b7160e01b5f52601160045260245ffd5b631e4fbdf760e01b5f525f60045260245ffd5b015190505f80610134565b601f1982169360045f52805f20915f5b8681106103f357508360019596106103db575b505050811b01600455610149565b01515f1960f88460031b161c191690555f80806103cd565b919260206001819286850151815501940192016103ba565b8181111561011a5760045f52601f820160051c7f8a35acfbc15ff81a39ae7d344fd709f28e8600b4aa8c65c6b64bfe7fe36bd19b60208410610471575b81601f9101920160051c03905f5b82811061046457505061011a565b5f82820155600101610456565b5f9150610448565b90607f1690610108565b015190505f806100d2565b601f1982169060035f52805f20915f5b8181106104d9575095836001959697106104c1575b505050811b016003556100e7565b01515f1960f88460031b161c191690555f80806104b3565b9192602060018192868b01518155019401920161049e565b818111156100b95760035f52601f820160051c7fc2575a0e9e593c00f959f8c92f12db2869c3395a3b0502d05e2516446f71f85b60208410610557575b81601f9101920160051c03905f5b82811061054a5750506100b9565b5f8282015560010161053c565b5f915061052e565b90607f16906100a7565b5f80fd5b6040519190601f01601f191682016001600160401b0381118382101761036457604052565b81601f82011215610569578051906001600160401b038211610364576105c1601f8301601f191660200161056d565b928284526020838301011161056957815f9260208093018386015e830101529056fe6080806040526004361015610012575f80fd5b5f3560e01c90816306fdde03146105c357508063095ea7b31461054157806318160ddd1461052457806323b872dd146104445780632b96895814610424578063313ce5671461040957806340c10f191461035d57806370a0823114610326578063715018a6146103045780638da5cb5b146102dc57806395d89b41146101c1578063a9059cbb14610190578063dd62ed3e146101405763f2fde38b146100b6575f80fd5b3461013c57602036600319011261013c576100cf6106bc565b6100d7610792565b6001600160a01b0316801561012957600580546001600160a01b0319811683179091556001600160a01b03167f8be0079c531659141344cd1fd0a4f28419497f9722a3daafe3b4186f6b6457e05f80a3005b631e4fbdf760e01b5f525f60045260245ffd5b5f80fd5b3461013c57604036600319011261013c576101596106bc565b6101616106d2565b6001600160a01b039182165f908152600160209081526040808320949093168252928352819020549051908152f35b3461013c57604036600319011261013c576101b66101ac6106bc565b60243590336106e8565b602060405160018152f35b3461013c575f36600319011261013c576040515f6004548060011c906001811680156102d2575b6020831081146102be578285529081156102a2575060011461024d575b50819003601f01601f191681019067ffffffffffffffff8211818310176102395761023582918260405282610692565b0390f35b634e487b7160e01b5f52604160045260245ffd5b905060045f527f8a35acfbc15ff81a39ae7d344fd709f28e8600b4aa8c65c6b64bfe7fe36bd19b5f905b82821061028c57506020915082010182610205565b6001816020925483858801015201910190610277565b90506020925060ff191682840152151560051b82010182610205565b634e487b7160e01b5f52602260045260245ffd5b91607f16916101e8565b3461013c575f36600319011261013c576005546040516001600160a01b039091168152602090f35b3461013c575f36600319011261013c5761031c610792565b6103246107b9565b005b3461013c57602036600319011261013c576001600160a01b036103476106bc565b165f525f602052602060405f2054604051908152f35b3461013c57604036600319011261013c576103766106bc565b60243590610382610792565b6001600160a01b03169081156103f657600254908082018092116103e25760207fddf252ad1be2c89b69c2b068fc378daa952ba7f163c4a11628f55a4df523b3ef915f9360025584845283825260408420818154019055604051908152a3005b634e487b7160e01b5f52601160045260245ffd5b63ec442f0560e01b5f525f60045260245ffd5b3461013c575f36600319011261013c57602060405160128152f35b3461013c575f36600319011261013c5761043c610792565b61031c610792565b3461013c57606036600319011261013c5761045d6106bc565b6104656106d2565b6001600160a01b0382165f8181526001602081815260408084203385529091529091205491936044359392909181016104a4575b506101b693506106e8565b8381106105095784156104f65733156104e3576101b6945f52600160205260405f2060018060a01b0333165f526020528360405f209103905584610499565b634a1406b160e11b5f525f60045260245ffd5b63e602df0560e01b5f525f60045260245ffd5b8390637dc7a0d960e11b5f523360045260245260445260645ffd5b3461013c575f36600319011261013c576020600254604051908152f35b3461013c57604036600319011261013c5761055a6106bc565b6024359033156104f6576001600160a01b03169081156104e357335f52600160205260405f20825f526020528060405f20556040519081527f8c5be1e5ebec7d5bd14f71427d1e84f3dd0314c0f7b2291e5b200ac8c7c3b92560203392a3602060405160018152f35b3461013c575f36600319011261013c575f6003548060011c90600181168015610688575b6020831081146102be578285529081156102a257506001146106335750819003601f01601f191681019067ffffffffffffffff8211818310176102395761023582918260405282610692565b905060035f527fc2575a0e9e593c00f959f8c92f12db2869c3395a3b0502d05e2516446f71f85b5f905b82821061067257506020915082010182610205565b600181602092548385880101520191019061065d565b91607f16916105e7565b602060409281835280519182918282860152018484015e5f828201840152601f01601f1916010190565b600435906001600160a01b038216820361013c57565b602435906001600160a01b038216820361013c57565b6001600160a01b031690811561077f576001600160a01b03169182156103f657815f525f60205260405f205481811061076657817fddf252ad1be2c89b69c2b068fc378daa952ba7f163c4a11628f55a4df523b3ef92602092855f525f84520360405f2055845f525f825260405f20818154019055604051908152a3565b8263391434e360e21b5f5260045260245260445260645ffd5b634b637e8f60e11b5f525f60045260245ffd5b6005546001600160a01b031633036107a657565b63118cdaa760e01b5f523360045260245ffd5b600580546001600160a01b031981169091555f906001600160a01b03167f8be0079c531659141344cd1fd0a4f28419497f9722a3daafe3b4186f6b6457e08280a356fea264697066735822122034374212a97d120e3d078531c5031c1223fdd7fbba7954f35f70a5890dffce0464736f6c63430008210033a26469706673582212207593d13e1208b5f7294ee3eeff0b282f9710d24e380262c421cd6b937deda40764736f6c63430008210033","linkReferences":{}},"methodIdentifiers":{"buy(address)":"f088d547","calculateFee(uint256)":"99a5d747","createToken(string,string,string)":"94aed7d0","getETHQuote(address)":"601ea5fc","getInitialTokenSupply()":"06b1557b","getInitialVEthSupply()":"9877ab97","getK()":"ee39e7a0","getLockedTokens(address)":"6b2d95d4","getPoolFee()":"6741fad2","getPoolManager()":"78d84da3","getPoolSupply(address)":"2f8d3a66","getPositionManager()":"6a22dede","getSlugFee()":"60481737","getStoredETH(address)":"514ec523","getTickSpacing()":"7db3fd69","getTokenQuote(address)":"920988c6","getTokenReserves(address)":"4e0370c8","getVEthReserves(address)":"46daa5d3","isGraduated(address)":"68a4c8b7","onERC721Received(address,address,uint256,bytes)":"150b7a02","owner()":"8da5cb5b","renounceOwnership()":"715018a6","sell(address,uint256)":"6c197ff5","setSlugFee(uint256)":"b7a1deab","transferOwnership(address)":"f2fde38b","withdrawFee(uint256)":"be357616"},"id":64}