{"abi":[{"type":"constructor","inputs":[{"name":"_slugFee","type":"uint256","internalType":"uint256"},{"name":"poolManager_","type":"address","internalType":"address"},{"name":"positionManager_","type":"address","internalType":"address"}],"stateMutability":"nonpayable"},{"type":"receive","stateMutability":"payable"},{"type":"function","name":"buy","inputs":[{"name":"token","type":"address","internalType":"address"},{"name":"nonce","type":"uint256","internalType":"uint256"}],"outputs":[],"stateMutability":"payable"},{"type":"function","name":"calculateFee","inputs":[{"name":"ETH","type":"uint256","internalType":"uint256"}],"outputs":[{"name":"","type":"uint256","internalType":"uint256"}],"stateMutability":"view"},{"type":"function","name":"createToken","inputs":[{"name":"name","type":"string","internalType":"string"},{"name":"symbol","type":"string","internalType":"string"},{"name":"metadata_uri","type":"string","internalType":"string"},{"name":"id","type":"string","internalType":"string"},{"name":"nonce","type":"uint256","internalType":"uint256"},{"name":"signature","type":"bytes","internalType":"bytes"}],"outputs":[],"stateMutability":"nonpayable"},{"type":"function","name":"getETHQuote","inputs":[{"name":"token","type":"address","internalType":"address"}],"outputs":[{"name":"","type":"uint256","internalType":"uint256"}],"stateMutability":"view"},{"type":"function","name":"getInitialTokenSupply","inputs":[],"outputs":[{"name":"","type":"uint256","internalType":"uint256"}],"stateMutability":"pure"},{"type":"function","name":"getInitialVEthSupply","inputs":[],"outputs":[{"name":"","type":"uint256","internalType":"uint256"}],"stateMutability":"pure"},{"type":"function","name":"getK","inputs":[],"outputs":[{"name":"","type":"uint256","internalType":"uint256"}],"stateMutability":"pure"},{"type":"function","name":"getLockedTokens","inputs":[{"name":"token","type":"address","internalType":"address"}],"outputs":[{"name":"","type":"uint256","internalType":"uint256"}],"stateMutability":"view"},{"type":"function","name":"getNonce","inputs":[],"outputs":[{"name":"","type":"uint256","internalType":"uint256"}],"stateMutability":"view"},{"type":"function","name":"getPoolFee","inputs":[],"outputs":[{"name":"","type":"uint24","internalType":"uint24"}],"stateMutability":"pure"},{"type":"function","name":"getPoolManager","inputs":[],"outputs":[{"name":"","type":"address","internalType":"address"}],"stateMutability":"view"},{"type":"function","name":"getPoolSupply","inputs":[{"name":"token","type":"address","internalType":"address"}],"outputs":[{"name":"","type":"tuple","internalType":"struct supply","components":[{"name":"_tokenSupply","type":"uint256","internalType":"uint256"},{"name":"_VETH","type":"uint256","internalType":"uint256"}]}],"stateMutability":"view"},{"type":"function","name":"getPositionManager","inputs":[],"outputs":[{"name":"","type":"address","internalType":"address"}],"stateMutability":"view"},{"type":"function","name":"getSlugFee","inputs":[],"outputs":[{"name":"","type":"uint256","internalType":"uint256"}],"stateMutability":"view"},{"type":"function","name":"getStoredETH","inputs":[{"name":"token","type":"address","internalType":"address"}],"outputs":[{"name":"","type":"uint256","internalType":"uint256"}],"stateMutability":"view"},{"type":"function","name":"getTickSpacing","inputs":[],"outputs":[{"name":"","type":"int24","internalType":"int24"}],"stateMutability":"pure"},{"type":"function","name":"getTokenQuote","inputs":[{"name":"token","type":"address","internalType":"address"}],"outputs":[{"name":"","type":"uint256","internalType":"uint256"}],"stateMutability":"view"},{"type":"function","name":"getTokenReserves","inputs":[{"name":"token","type":"address","internalType":"address"}],"outputs":[{"name":"","type":"uint256","internalType":"uint256"}],"stateMutability":"view"},{"type":"function","name":"getVEthReserves","inputs":[{"name":"token","type":"address","internalType":"address"}],"outputs":[{"name":"","type":"uint256","internalType":"uint256"}],"stateMutability":"view"},{"type":"function","name":"isGraduated","inputs":[{"name":"token","type":"address","internalType":"address"}],"outputs":[{"name":"","type":"bool","internalType":"bool"}],"stateMutability":"view"},{"type":"function","name":"onERC721Received","inputs":[{"name":"","type":"address","internalType":"address"},{"name":"","type":"address","internalType":"address"},{"name":"","type":"uint256","internalType":"uint256"},{"name":"","type":"bytes","internalType":"bytes"}],"outputs":[{"name":"","type":"bytes4","internalType":"bytes4"}],"stateMutability":"pure"},{"type":"function","name":"owner","inputs":[],"outputs":[{"name":"","type":"address","internalType":"address"}],"stateMutability":"view"},{"type":"function","name":"renounceOwnership","inputs":[],"outputs":[],"stateMutability":"nonpayable"},{"type":"function","name":"sell","inputs":[{"name":"token","type":"address","internalType":"address"},{"name":"amount","type":"uint256","internalType":"uint256"},{"name":"nonce","type":"uint256","internalType":"uint256"}],"outputs":[],"stateMutability":"nonpayable"},{"type":"function","name":"setSlugFee","inputs":[{"name":"fee","type":"uint256","internalType":"uint256"}],"outputs":[],"stateMutability":"nonpayable"},{"type":"function","name":"transferOwnership","inputs":[{"name":"newOwner","type":"address","internalType":"address"}],"outputs":[],"stateMutability":"nonpayable"},{"type":"function","name":"withdrawFee","inputs":[{"name":"amount","type":"uint256","internalType":"uint256"}],"outputs":[],"stateMutability":"nonpayable"},{"type":"event","name":"OwnershipTransferred","inputs":[{"name":"previousOwner","type":"address","indexed":true,"internalType":"address"},{"name":"newOwner","type":"address","indexed":true,"internalType":"address"}],"anonymous":false},{"type":"event","name":"TokenBought","inputs":[{"name":"token","type":"address","indexed":true,"internalType":"address"},{"name":"VETH","type":"uint256","indexed":false,"internalType":"uint256"},{"name":"amount","type":"uint256","indexed":false,"internalType":"uint256"}],"anonymous":false},{"type":"event","name":"TokenCreated","inputs":[{"name":"token","type":"address","indexed":true,"internalType":"address"},{"name":"id","type":"string","indexed":false,"internalType":"string"}],"anonymous":false},{"type":"event","name":"TokenSold","inputs":[{"name":"token","type":"address","indexed":true,"internalType":"address"},{"name":"VETH","type":"uint256","indexed":false,"internalType":"uint256"},{"name":"amount","type":"uint256","indexed":false,"internalType":"uint256"}],"anonymous":false},{"type":"event","name":"poolcreated","inputs":[{"name":"tokenA","type":"address","indexed":true,"internalType":"address"}],"anonymous":false},{"type":"event","name":"tokenDeployed","inputs":[{"name":"token","type":"address","indexed":true,"internalType":"address"}],"anonymous":false},{"type":"event","name":"tokenGraduated","inputs":[{"name":"token","type":"address","indexed":true,"internalType":"address"}],"anonymous":false},{"type":"error","name":"AddressEmptyCode","inputs":[{"name":"target","type":"address","internalType":"address"}]},{"type":"error","name":"AddressInsufficientBalance","inputs":[{"name":"account","type":"address","internalType":"address"}]},{"type":"error","name":"FailedInnerCall","inputs":[]},{"type":"error","name":"OwnableInvalidOwner","inputs":[{"name":"owner","type":"address","internalType":"address"}]},{"type":"error","name":"OwnableUnauthorizedAccount","inputs":[{"name":"account","type":"address","internalType":"address"}]},{"type":"error","name":"ReentrancyGuardReentrantCall","inputs":[]},{"type":"error","name":"SafeERC20FailedOperation","inputs":[{"name":"token","type":"address","internalType":"address"}]},{"type":"error","name":"TooSmallTransaction","inputs":[{"name":"token","type":"address","internalType":"address"},{"name":"value","type":"uint256","internalType":"uint256"}]},{"type":"error","name":"TransactionFailure","inputs":[{"name":"token","type":"address","internalType":"address"},{"name":"buy","type":"bool","internalType":"bool"},{"name":"VETH","type":"uint256","internalType":"uint256"},{"name":"tokens","type":"uint256","internalType":"uint256"}]},{"type":"error","name":"VETH_Underflow","inputs":[{"name":"token","type":"address","internalType":"address"}]}],"bytecode":{"object":"0x60803461010257601f6132ee38819003918201601f19168301916001600160401b03831184841017610106578084926060946040528339810103126101025780519061005960406100526020840161011a565b920161011a565b9033156100ef575f8054336001600160a01b0319821681178355604051959290916001600160a01b0316907f8be0079c531659141344cd1fd0a4f28419497f9722a3daafe3b4186f6b6457e09080a35f6005556001600655600755600880546001600160a01b039283166001600160a01b031991821617909155600980549390921692169190911790556131bf908161012f8239f35b631e4fbdf760e01b5f525f60045260245ffd5b5f80fd5b634e487b7160e01b5f52604160045260245ffd5b51906001600160a01b03821682036101025756fe608080604052600436101561001c575b50361561001a575f80fd5b005b5f905f3560e01c90816306b1557b14611812575080630f85429614611512578063150b7a021461149c5780632f8d3a66146113fc57806346daa5d3146113905780634e0370c814611325578063514ec523146112ec578063601ea5fc1461122f57806360481737146112115780636741fad2146111f457806368a4c8b7146111b55780636a22dede1461118c5780636a27246214610efb5780636b2d95d414610ec2578063715018a614610e6857806378d84da314610e3f5780637db3fd6914610e235780638da5cb5b14610dfc578063920988c614610d435780639877ab9714610d2057806399a5d74714610cf9578063b7a1deab14610cd6578063be35761614610c00578063cce7ec1314610227578063d087d28814610200578063ee39e7a0146101d55763f2fde38b0361000f57346101d25760203660031901126101d2576101666118df565b61016e611b21565b6001600160a01b031680156101be5781546001600160a01b03198116821783556001600160a01b03167f8be0079c531659141344cd1fd0a4f28419497f9722a3daafe3b4186f6b6457e08380a380f35b631e4fbdf760e01b82526004829052602482fd5b80fd5b50346101d257806003193601126101d2575060206d9dc5ada82b70b59df02000000000604051908152f35b50346101d257806003193601126101d2576040602091338152600a83522054604051908152f35b5060403660031901126101d25761023c6118df565b6001600160a01b0381168083526001602052604083205490919015801590610be8575b6102689061199d565b338352600a6020526102826024356040852054141561190b565b338352600a602052604083206102988154611957565b905581835260046020526102b360ff604085205416156119e1565b6102bb611aa7565b6127103410610bd0576102cd34611a8b565b906102d88234611a42565b908385526001602052602061031b60408720936040516102f781611831565b6001865496878352015493849101526d9dc5ada82b70b59df0200000000092611a4f565b908115610bbc576020938692610332920490611a42565b81875260018452604087209460405161034a81611831565b600187549788835201549586910152878683115f14610b0657505050508261037191611ac7565b8480808061037e85611a8b565b9561038b87600554611a4f565b6005556103c4866103a561039f8a83611a4f565b34611a42565b928b85526002602052604085206103bd838254611a4f565b9055611a4f565b6001604051916103d383611831565b848352602083019081528b855281602052604085209251835551910155335af16103fb611a5c565b5015610adb578261043b7f28cab0d660ed8aedd61a8c9db00b97f6a2d67e07d87795994f440b18bc5f1aa39360409361043688973389611b47565b611a4f565b9082519182526020820152a25b80825260016020526040822060405161046081611831565b6020600183549384845201549101521561047e575b50600160065580f35b80825260026020526040822054818352600360205260408320548015610a83578115610a3f576040519060a0820182811067ffffffffffffffff821117610a2b576040528482528360208301526105dc6040830152601e60608301528460808301526104f56104f0848360c01b611a38565b611fd3565b6001600160a01b0381116109e65760085460405163313b65df60e11b81526001600160a01b0392831695929091602091839160c49183918c911661053c600484018b611b8a565b8a60a48401525af180156109db576109a1575b5061055c61738619611bcd565b92610568617387611bcd565b948261057386611ca6565b918561057e89611ca6565b9182856001600160a01b0380831690821611610995575b50506001600160a01b03851681116109345750506105b292612152565b935b60095460405163095ea7b360e01b81526001600160a01b039091166004820152602481018590526020816044818c8c5af18015610929576108fc575b50604051600160f91b6020820152600d60f81b6021820152600560fa1b60228201526003815293889061062460238761184d565b6040519661063360808961184d565b600388526060835b8181106108e6575050826001600160801b0361076b9899969593816106c5946106d3975060209d8e97604051966106728a8961184d565b87526106856040519b8c9a8b0190611b8a565b60020b60c089015260020b60e0880152166101008601528189166101208601521661014084015230610160840152610180808401526101a0830190611979565b03601f19810183528261184d565b6106dc82611bfa565b526106e681611bfa565b5060405187868201528660408201526040815261070460608261184d565b61070d82611c1b565b5261071781611c1b565b5060405187868201523060408201526040815261073560608261184d565b61073e82611c2b565b5261074881611c2b565b5060018060a01b0360095416936040519384916040888401526060830190611979565b91601f1982840301604083015280518084528784019388808360051b8301019301948b915b8a8484106108b75750505050506107b0925003601f19810184528361184d565b61012c4201928342116108a3579081879493923b1561089f5784926107f39260405180968195829463dd46508f60e01b8452604060048501526044840190611979565b90602483015203925af180156108945761087b575b5090826004925260038152836040812055827fe75b506e79caf6c2d40b9c3d5c97aa086caf52bcc26450f372ce3457a4a7fbfb8580a28284525260408220805460ff191660011790557f7cbf17c3ec08f3fb55efc20f60b3a565b4e8539b5e8940b90d37a0cdca352b408280a25f610475565b816108859161184d565b61089057825f610808565b8280fd5b6040513d84823e3d90fd5b8480fd5b634e487b7160e01b87526011600452602487fd5b6001929496506108d481929496601f198682030187528951611979565b97019301930190928794929593610790565b60606020828c018101919091528d95500161063b565b61091d9060203d602011610922575b610915818361184d565b810190611be2565b6105f0565b503d61090b565b6040513d8b823e3d90fd5b909290916001600160a01b0381168310156109895782916109599161095f9594612152565b93612118565b6001600160801b0381166001600160801b038316105f1461098257505b936105b4565b905061097c565b91505061097c92612118565b90955092505f80610595565b6020813d6020116109d3575b816109ba6020938361184d565b810103126109cf57518060020b81031561054f575b8680fd5b3d91506109ad565b6040513d89823e3d90fd5b60405162461bcd60e51b815260206004820152601860248201527f50726963654d6174683a2073717274206f766572666c6f7700000000000000006044820152606490fd5b634e487b7160e01b86526041600452602486fd5b606460405162461bcd60e51b815260206004820152602060248201527f534c554746454153543a204e6f2045544820666f722067726164756174696f6e6044820152fd5b60405162461bcd60e51b815260206004820152602a60248201527f534c554746454153543a204e6f206c6f636b656420746f6b656e7320666f722060448201526933b930b23ab0ba34b7b760b11b6064820152608490fd5b6084848660405191639d743e2f60e01b83526004830152600160248301523460448301526064820152fd5b604094507f28cab0d660ed8aedd61a8c9db00b97f6a2d67e07d87795994f440b18bc5f1aa3956001610b7986610b7387610bab98999c8b610b478a34611a42565b988995610b568c600554611a4f565b6005558152600260205220610b6c858254611a4f565b9055611a42565b93611a4f565b875192610b8584611831565b835260208301908152898c5281602052878c209251835551910155610436843389611b47565b9082519182526020820152a2610448565b634e487b7160e01b5f52601260045260245ffd5b630a305e2560e01b8352600482905234602452604483fd5b5081835260016020819052604084200154151561025f565b50346101d25760203660031901126101d257600435610c1d611b21565b8060055410610c9157815482918291829182916001600160a01b03165af1610c43611a5c565b5015610c4c5780f35b60405162461bcd60e51b815260206004820152601e60248201527f534c554746454153543a205452414e53414354494f4e204641494c55524500006044820152606490fd5b60405162461bcd60e51b815260206004820152601f60248201527f534c554746454153543a20496e73756666696369656e742062616c616e6365006044820152606490fd5b50346101d25760203660031901126101d257610cf0611b21565b60043560075580f35b50346101d25760203660031901126101d2576020610d18600435611a8b565b604051908152f35b50346101d257806003193601126101d2576020604051673782dace9d9000008152f35b50346101d25760203660031901126101d2576020906001600160a01b03610d686118df565b1680825260018352604082205415801590610de6575b610d879061199d565b80825260048352610d9f60ff604084205416156119e1565b81526001825260408120600160405191610db883611831565b8054835201549283910152506d9dc5ada82b70b59df02000000000908015610bbc5760209104604051908152f35b5080825260018084526040832001541515610d7e565b50346101d257806003193601126101d257546040516001600160a01b039091168152602090f35b50346101d257806003193601126101d2576020604051601e8152f35b50346101d257806003193601126101d2576008546040516001600160a01b039091168152602090f35b50346101d257806003193601126101d257610e81611b21565b80546001600160a01b03198116825581906001600160a01b03167f8be0079c531659141344cd1fd0a4f28419497f9722a3daafe3b4186f6b6457e08280a380f35b50346101d25760203660031901126101d2576020906040906001600160a01b03610eea6118df565b168152600383522054604051908152f35b50346101d25760603660031901126101d257610f156118df565b6001600160a01b0381168083526001602052604083205490916024359115801590611174575b610f449061199d565b8284526004602052610f5d60ff604086205416156119e1565b338452600a602052610f776044356040862054141561190b565b338452600a60205260408420610f8d8154611957565b9055610f97611aa7565b604051636eb1769f60e11b8152336004820152306024820152602081604481875afa80156111695783918691611132575b5091610fd982610fde94101561199d565b611ac7565b90838080806110bf610fef87611a8b565b888352600260205260408320611006898254611a42565b905561101481600554611a4f565b60055588835260016020526040832060016110568a61104f8b6040519561103a87611831565b602086825492838a5201549701968752611a4f565b9351611a42565b6040519261106384611831565b8352602083019081528b8652816020526040862092518355519101556110b96040516323b872dd60e01b6020820152336024820152306044820152886064820152606481526110b360848261184d565b8a611c3b565b87611a42565b335af16110ca611a5c565b5015611108577f35ea94addbc62df281ade49cc2ad9b3d9259166170cf702928b4ddc045f7256e9160409182519182526020820152a2600160065580f35b905060849260405192639d743e2f60e01b8452600484015280602484015260448301526064820152fd5b9150506020813d602011611161575b8161114e6020938361184d565b8101031261089f57518290610fd9610fc8565b3d9150611141565b6040513d87823e3d90fd5b50828452600160208190526040852001541515610f3b565b50346101d257806003193601126101d2576009546040516001600160a01b039091168152602090f35b50346101d25760203660031901126101d25760209060ff906040906001600160a01b036111e06118df565b168152600484522054166040519015158152f35b50346101d257806003193601126101d25760206040516105dc8152f35b50346101d257806003193601126101d2576020600754604051908152f35b50346101d25760203660031901126101d2576001600160a01b036112516118df565b1680825260016020526040822054158015906112d4575b6112719061199d565b808252600460205261128a60ff604084205416156119e1565b8152600160205260408120906040516112a281611831565b602060018454948584520154910152506d9dc5ada82b70b59df02000000000908015610bbc5760209104604051908152f35b50808252600160208190526040832001541515611268565b50346101d25760203660031901126101d2576020906040906001600160a01b036113146118df565b168152600283522054604051908152f35b50346101d25760203660031901126101d2576020906040906001600160a01b0361134d6118df565b1680825260018452828220541580159061137b575b61136b9061199d565b8152600183522054604051908152f35b50808252600180855283832001541515611362565b50346101d25760203660031901126101d2576020906001906040906001600160a01b036113bb6118df565b1680825283855282822054158015906113e8575b6113d89061199d565b8152828452200154604051908152f35b5080825283855282822084015415156113cf565b50346101d25760203660031901126101d2576040809161141a6118df565b816020845161142881611831565b82815201526001600160a01b031680825260016020528282205415801590611485575b6114549061199d565b8152600160205220815161146781611831565b60206001835493848452015491019081528251918252516020820152f35b50808252600160208190528383200154151561144b565b50346101d25760803660031901126101d2576114b66118df565b506114bf6118f5565b5060643567ffffffffffffffff811161150e573660238201121561150e57806004013567ffffffffffffffff811161089057369101602401116101d257604051630a85bd0160e11b8152602090f35b5080fd5b50346117fa5760c03660031901126117fa5760043567ffffffffffffffff81116117fa576115449036906004016118c1565b60243567ffffffffffffffff81116117fa576115649036906004016118c1565b9060443567ffffffffffffffff81116117fa576115859036906004016118c1565b9160643567ffffffffffffffff81116117fa576115a69036906004016118c1565b9260a43567ffffffffffffffff81116117fa57366023820112156117fa576115d890369060248160040135910161188b565b50335f52600a6020526115f360843560405f2054141561190b565b335f52600a60205260405f206116098154611957565b905560405192610e16918285019185831067ffffffffffffffff8411176117fe57859461164a61165892611666966123748939606086526060860190611979565b908482036020860152611979565b916040818403910152611979565b03905ff080156117ef576001600160a01b031690813b156117fa576040516340c10f1960e01b815230600482015266038d7ea4c6800060248201525f8160448183875af180156117ef576117d8575b506117ba7f7c56d5eff73d004b4d80f35d05a7e9a2429df1bb9544be59c859d049e2f449fb91838552600360205265b5e620f4800060408620556040516116fb81611831565b6602d79883d200008152600160208201673782dace9d900000815286885281602052604088209251835551910155838552600160205260408520541515806117c0575b6117479061199d565b60405161175381611831565b6602d79883d200008152600160208201673782dace9d900000815286885281602052604088209251835551910155604051918291857f4170ca3985e8a4e2d4e0c16fd36c60373a69cf7decb842d2221595fc314aa9ac8880a2602083526020830190611979565b0390a280f35b5083855260016020819052604086200154151561173e565b6117e59193505f9061184d565b5f916117ba6116b5565b6040513d5f823e3d90fd5b5f80fd5b634e487b7160e01b5f52604160045260245ffd5b346117fa575f3660031901126117fa57806602d79883d2000060209252f35b6040810190811067ffffffffffffffff8211176117fe57604052565b90601f8019910116810190811067ffffffffffffffff8211176117fe57604052565b67ffffffffffffffff81116117fe57601f01601f191660200190565b9291926118978261186f565b916118a5604051938461184d565b8294818452818301116117fa578281602093845f960137010152565b9080601f830112156117fa578160206118dc9335910161188b565b90565b600435906001600160a01b03821682036117fa57565b602435906001600160a01b03821682036117fa57565b1561191257565b60405162461bcd60e51b815260206004820152601f60248201527f534c554746454153543a204641494c45442044554520544f205245504c4159006044820152606490fd5b5f1981146119655760010190565b634e487b7160e01b5f52601160045260245ffd5b805180835260209291819084018484015e5f828201840152601f01601f1916010190565b156119a457565b60405162461bcd60e51b815260206004820152601560248201527429a62aa3a322a0a9aa101d102327a92124a22222a760591b6044820152606490fd5b156119e857565b60405162461bcd60e51b815260206004820152602260248201527f534c554746454153543a20546f6b656e20616c72656164792067726164756174604482015261195960f21b6064820152608490fd5b8115610bbc570490565b9190820391821161196557565b9190820180921161196557565b3d15611a86573d90611a6d8261186f565b91611a7b604051938461184d565b82523d5f602084013e565b606090565b6007549081810291818304149015171561196557612710900490565b600260065414611ab8576002600655565b633ee5aeb560e01b5f5260045ffd5b60018060a01b03165f5260016020526020611b1060405f2092604051611aec81611831565b6001855495868352015493849101526d9dc5ada82b70b59df0200000000093611a4f565b8015610bbc576118dc920490611a42565b5f546001600160a01b03163303611b3457565b63118cdaa760e01b5f523360045260245ffd5b60405163a9059cbb60e01b60208201526001600160a01b03929092166024830152604480830193909352918152611b8891611b8360648361184d565b611c3b565b565b80516001600160a01b03908116835260208083015182169084015260408083015162ffffff169084015260608083015160020b9084015260809182015116910152565b601e9060020b02908160020b91820361196557565b908160209103126117fa575180151581036117fa5790565b805115611c075760200190565b634e487b7160e01b5f52603260045260245ffd5b805160011015611c075760400190565b805160021015611c075760600190565b5f80611c639260018060a01b03169360208151910182865af1611c5c611a5c565b9083612315565b8051908115159182611c8b575b5050611c795750565b635274afe760e01b5f5260045260245ffd5b611c9e9250602080918301019101611be2565b155f80611c70565b60020b908160ff1d82810118620d89e88111611fc05763ffffffff9192600182167001fffcb933bd6fad37aa2d162d1a59400102600160801b189160028116611fa4575b60048116611f88575b60088116611f6c575b60108116611f50575b60208116611f34575b60408116611f18575b60808116611efc575b6101008116611ee0575b6102008116611ec4575b6104008116611ea8575b6108008116611e8c575b6110008116611e70575b6120008116611e54575b6140008116611e38575b6180008116611e1c575b620100008116611e00575b620200008116611de5575b620400008116611dca575b6208000016611db1575b5f12611da9575b0160201c90565b5f1904611da2565b6b048a170391f7dc42444e8fa290910260801c90611d9b565b6d2216e584f5fa1ea926041bedfe9890920260801c91611d91565b916e5d6af8dedb81196699c329225ee6040260801c91611d86565b916f09aa508b5b7a84e1c677de54f3e99bc90260801c91611d7b565b916f31be135f97d08fd981231505542fcfa60260801c91611d70565b916f70d869a156d2a1b890bb3df62baf32f70260801c91611d66565b916fa9f746462d870fdf8a65dc1f90e061e50260801c91611d5c565b916fd097f3bdfd2022b8845ad8f792aa58250260801c91611d52565b916fe7159475a2c29b7443b29c7fa6e889d90260801c91611d48565b916ff3392b0822b70005940c7a398e4b70f30260801c91611d3e565b916ff987a7253ac413176f2b074cf7815e540260801c91611d34565b916ffcbe86c7900a88aedcffc83b479aa3a40260801c91611d2a565b916ffe5dee046a99a2a811c461f1969c30530260801c91611d20565b916fff2ea16466c96a3843ec78b326b528610260801c91611d17565b916fff973b41fa98c081472e6896dfb254c00260801c91611d0e565b916fffcb9843d60f6159c9db58835c9266440260801c91611d05565b916fffe5caca7e10e4e61c3624eaa0941cd00260801c91611cfc565b916ffff2e50f5f656932ef12357cf3c7fdcc0260801c91611cf3565b916ffff97272373d413259a46990580e213a0260801c91611cea565b826345c3193d60e11b5f5260045260245ffd5b8015612113576120a16001825f908460801c80612107575b508060401c806120fa575b508060201c806120ed575b508060101c806120e0575b508060081c806120d3575b508060041c806120c6575b508060021c806120b9575b50821c6120b2575b811c1b6120428184611a38565b0160011c6120508184611a38565b0160011c61205e8184611a38565b0160011c61206c8184611a38565b0160011c61207a8184611a38565b0160011c6120888184611a38565b0160011c6120968184611a38565b0160011c8092611a38565b808210156120ad575090565b905090565b8101612035565b600291509101905f61202d565b600491509101905f612022565b600891509101905f612017565b601091509101905f61200c565b602091509101905f612001565b604091509101905f611ff6565b9150506080905f611feb565b505f90565b6118dc926121479290916001600160a01b038083169082161161214c575b90036001600160a01b03169061219f565b6122f2565b90612136565b6118dc92612147929091906001600160a01b0380821690831611612199575b6121876001600160a01b03828116908416612229565b9190036001600160a01b031691612272565b90612171565b90606082901b905f19600160601b8409928280851094039380850394858411156117fa5714612222578190600160601b900981805f03168092046002816003021880820260020302808202600203028082026002030280820260020302808202600203028091026002030293600183805f03040190848311900302920304170290565b5091500490565b81810291905f1982820991838084109303928084039384600160601b11156117fa571461226957600160601b910990828211900360a01b910360601c1790565b50505060601c90565b91818302915f19818509938380861095039480860395868511156117fa57146122ea579082910981805f03168092046002816003021880820260020302808202600203028082026002030280820260020302808202600203028091026002030293600183805f03040190848311900302920304170290565b505091500490565b906001600160801b03821680920361230657565b6393dafdf160e01b5f5260045ffd5b90612339575080511561232a57805190602001fd5b630a12f52160e11b5f5260045ffd5b8151158061236a575b61234a575090565b639996b31560e01b5f9081526001600160a01b0391909116600452602490fd5b50803b1561234256fe60806040523461056957610e16803803806100198161056d565b92833981016060828203126105695781516001600160401b0381116105695781610044918401610592565b60208301519092906001600160401b0381116105695782610066918301610592565b60408201519092906001600160401b038111610569576100869201610592565b82516001600160401b03811161036457600354600181811c9116801561055f575b602082101461034657601f81116104f1575b506020601f821160011461048e57819293945f92610483575b50508160011b915f199060031b1c1916176003555b81516001600160401b03811161036457600454600181811c91168015610479575b602082101461034657601f811161040b575b50602092601f82116001146103aa57928192935f9261039f575b50508160011b915f199060031b1c1916176004555b331561038c5760058054336001600160a01b0319821681179092556001600160a01b03167f8be0079c531659141344cd1fd0a4f28419497f9722a3daafe3b4186f6b6457e05f80a3600780546001600160a01b03191633179055600254633b9aca00810190811061037857600255335f525f60205260405f20633b9aca008154019055604051633b9aca0081525f7fddf252ad1be2c89b69c2b068fc378daa952ba7f163c4a11628f55a4df523b3ef60203393a380516001600160401b03811161036457600654600181811c9116801561035a575b602082101461034657601f81116102d8575b50602091601f8211600114610278579181925f9261026d575b50508160011b915f199060031b1c1916176006555b60405161083290816105e48239f35b015190505f80610249565b601f1982169260065f52805f20915f5b8581106102c0575083600195106102a8575b505050811b0160065561025e565b01515f1960f88460031b161c191690555f808061029a565b91926020600181928685015181550194019201610288565b818111156102305760065f52601f820160051c7ff652222313e28459528d920b65115c16c04f3efc82aaedc97be59f3f377c0d3f6020841061033e575b81601f9101920160051c03905f5b828110610331575050610230565b5f82820155600101610323565b5f9150610315565b634e487b7160e01b5f52602260045260245ffd5b90607f169061021e565b634e487b7160e01b5f52604160045260245ffd5b634e487b7160e01b5f52601160045260245ffd5b631e4fbdf760e01b5f525f60045260245ffd5b015190505f80610134565b601f1982169360045f52805f20915f5b8681106103f357508360019596106103db575b505050811b01600455610149565b01515f1960f88460031b161c191690555f80806103cd565b919260206001819286850151815501940192016103ba565b8181111561011a5760045f52601f820160051c7f8a35acfbc15ff81a39ae7d344fd709f28e8600b4aa8c65c6b64bfe7fe36bd19b60208410610471575b81601f9101920160051c03905f5b82811061046457505061011a565b5f82820155600101610456565b5f9150610448565b90607f1690610108565b015190505f806100d2565b601f1982169060035f52805f20915f5b8181106104d9575095836001959697106104c1575b505050811b016003556100e7565b01515f1960f88460031b161c191690555f80806104b3565b9192602060018192868b01518155019401920161049e565b818111156100b95760035f52601f820160051c7fc2575a0e9e593c00f959f8c92f12db2869c3395a3b0502d05e2516446f71f85b60208410610557575b81601f9101920160051c03905f5b82811061054a5750506100b9565b5f8282015560010161053c565b5f915061052e565b90607f16906100a7565b5f80fd5b6040519190601f01601f191682016001600160401b0381118382101761036457604052565b81601f82011215610569578051906001600160401b038211610364576105c1601f8301601f191660200161056d565b928284526020838301011161056957815f9260208093018386015e830101529056fe6080806040526004361015610012575f80fd5b5f3560e01c90816306fdde03146105c357508063095ea7b31461054157806318160ddd1461052457806323b872dd146104445780632b96895814610424578063313ce5671461040957806340c10f191461035d57806370a0823114610326578063715018a6146103045780638da5cb5b146102dc57806395d89b41146101c1578063a9059cbb14610190578063dd62ed3e146101405763f2fde38b146100b6575f80fd5b3461013c57602036600319011261013c576100cf6106bc565b6100d7610792565b6001600160a01b0316801561012957600580546001600160a01b0319811683179091556001600160a01b03167f8be0079c531659141344cd1fd0a4f28419497f9722a3daafe3b4186f6b6457e05f80a3005b631e4fbdf760e01b5f525f60045260245ffd5b5f80fd5b3461013c57604036600319011261013c576101596106bc565b6101616106d2565b6001600160a01b039182165f908152600160209081526040808320949093168252928352819020549051908152f35b3461013c57604036600319011261013c576101b66101ac6106bc565b60243590336106e8565b602060405160018152f35b3461013c575f36600319011261013c576040515f6004548060011c906001811680156102d2575b6020831081146102be578285529081156102a2575060011461024d575b50819003601f01601f191681019067ffffffffffffffff8211818310176102395761023582918260405282610692565b0390f35b634e487b7160e01b5f52604160045260245ffd5b905060045f527f8a35acfbc15ff81a39ae7d344fd709f28e8600b4aa8c65c6b64bfe7fe36bd19b5f905b82821061028c57506020915082010182610205565b6001816020925483858801015201910190610277565b90506020925060ff191682840152151560051b82010182610205565b634e487b7160e01b5f52602260045260245ffd5b91607f16916101e8565b3461013c575f36600319011261013c576005546040516001600160a01b039091168152602090f35b3461013c575f36600319011261013c5761031c610792565b6103246107b9565b005b3461013c57602036600319011261013c576001600160a01b036103476106bc565b165f525f602052602060405f2054604051908152f35b3461013c57604036600319011261013c576103766106bc565b60243590610382610792565b6001600160a01b03169081156103f657600254908082018092116103e25760207fddf252ad1be2c89b69c2b068fc378daa952ba7f163c4a11628f55a4df523b3ef915f9360025584845283825260408420818154019055604051908152a3005b634e487b7160e01b5f52601160045260245ffd5b63ec442f0560e01b5f525f60045260245ffd5b3461013c575f36600319011261013c57602060405160128152f35b3461013c575f36600319011261013c5761043c610792565b61031c610792565b3461013c57606036600319011261013c5761045d6106bc565b6104656106d2565b6001600160a01b0382165f8181526001602081815260408084203385529091529091205491936044359392909181016104a4575b506101b693506106e8565b8381106105095784156104f65733156104e3576101b6945f52600160205260405f2060018060a01b0333165f526020528360405f209103905584610499565b634a1406b160e11b5f525f60045260245ffd5b63e602df0560e01b5f525f60045260245ffd5b8390637dc7a0d960e11b5f523360045260245260445260645ffd5b3461013c575f36600319011261013c576020600254604051908152f35b3461013c57604036600319011261013c5761055a6106bc565b6024359033156104f6576001600160a01b03169081156104e357335f52600160205260405f20825f526020528060405f20556040519081527f8c5be1e5ebec7d5bd14f71427d1e84f3dd0314c0f7b2291e5b200ac8c7c3b92560203392a3602060405160018152f35b3461013c575f36600319011261013c575f6003548060011c90600181168015610688575b6020831081146102be578285529081156102a257506001146106335750819003601f01601f191681019067ffffffffffffffff8211818310176102395761023582918260405282610692565b905060035f527fc2575a0e9e593c00f959f8c92f12db2869c3395a3b0502d05e2516446f71f85b5f905b82821061067257506020915082010182610205565b600181602092548385880101520191019061065d565b91607f16916105e7565b602060409281835280519182918282860152018484015e5f828201840152601f01601f1916010190565b600435906001600160a01b038216820361013c57565b602435906001600160a01b038216820361013c57565b6001600160a01b031690811561077f576001600160a01b03169182156103f657815f525f60205260405f205481811061076657817fddf252ad1be2c89b69c2b068fc378daa952ba7f163c4a11628f55a4df523b3ef92602092855f525f84520360405f2055845f525f825260405f20818154019055604051908152a3565b8263391434e360e21b5f5260045260245260445260645ffd5b634b637e8f60e11b5f525f60045260245ffd5b6005546001600160a01b031633036107a657565b63118cdaa760e01b5f523360045260245ffd5b600580546001600160a01b031981169091555f906001600160a01b03167f8be0079c531659141344cd1fd0a4f28419497f9722a3daafe3b4186f6b6457e08280a356fea264697066735822122034374212a97d120e3d078531c5031c1223fdd7fbba7954f35f70a5890dffce0464736f6c63430008210033a264697066735822122016312f8e62a086bde20b00ebbad54bed089247887ce74d919a9b0769ec6d4bab64736f6c63430008210033","linkReferences":{}},"methodIdentifiers":{"buy(address,uint256)":"cce7ec13","calculateFee(uint256)":"99a5d747","createToken(string,string,string,string,uint256,bytes)":"0f854296","getETHQuote(address)":"601ea5fc","getInitialTokenSupply()":"06b1557b","getInitialVEthSupply()":"9877ab97","getK()":"ee39e7a0","getLockedTokens(address)":"6b2d95d4","getNonce()":"d087d288","getPoolFee()":"6741fad2","getPoolManager()":"78d84da3","getPoolSupply(address)":"2f8d3a66","getPositionManager()":"6a22dede","getSlugFee()":"60481737","getStoredETH(address)":"514ec523","getTickSpacing()":"7db3fd69","getTokenQuote(address)":"920988c6","getTokenReserves(address)":"4e0370c8","getVEthReserves(address)":"46daa5d3","isGraduated(address)":"68a4c8b7","onERC721Received(address,address,uint256,bytes)":"150b7a02","owner()":"8da5cb5b","renounceOwnership()":"715018a6","sell(address,uint256,uint256)":"6a272462","setSlugFee(uint256)":"b7a1deab","transferOwnership(address)":"f2fde38b","withdrawFee(uint256)":"be357616"},"id":79}